{"contracts/Token.sol":{"Token":{"abi":[{"anonymous":false,"inputs":[{"indexed":false,"internalType":"string","name":"message","type":"string"}],"name":"AdminMessage","type":"event"},{"anonymous":false,"inputs":[{"indexed":false,"internalType":"string","name":"oldMessage","type":"string"},{"indexed":false,"internalType":"string","name":"newMessage","type":"string"}],"name":"MessageUpdated","type":"event"},{"anonymous":false,"inputs":[{"indexed":true,"internalType":"address","name":"payer","type":"address"},{"indexed":false,"internalType":"uint256","name":"amount","type":"uint256"},{"indexed":false,"internalType":"string","name":"message","type":"string"}],"name":"PaymentLogged","type":"event"},{"anonymous":false,"inputs":[{"indexed":true,"internalType":"address","name":"user","type":"address"},{"indexed":false,"internalType":"string","name":"productName","type":"string"},{"indexed":false,"internalType":"uint256","name":"productPrice","type":"uint256"}],"name":"ProductBought","type":"event"},{"anonymous":false,"inputs":[{"indexed":true,"internalType":"address","name":"from","type":"address"},{"indexed":true,"internalType":"address","name":"to","type":"address"},{"indexed":false,"internalType":"uint256","name":"amount","type":"uint256"}],"name":"Transfer","type":"event"},{"inputs":[{"internalType":"string","name":"_newMessage","type":"string"}],"name":"CourseAdded","outputs":[],"stateMutability":"nonpayable","type":"function"},{"inputs":[{"internalType":"string","name":"_newMessage","type":"string"}],"name":"CourseBought","outputs":[],"stateMutability":"nonpayable","type":"function"},{"inputs":[{"internalType":"address","name":"","type":"address"}],"name":"balanceOf","outputs":[{"internalType":"uint256","name":"","type":"uint256"}],"stateMutability":"view","type":"function"},{"inputs":[],"name":"fetchLogs","outputs":[{"components":[{"internalType":"address","name":"user","type":"address"},{"internalType":"string","name":"action","type":"string"},{"internalType":"string","name":"productName","type":"string"},{"internalType":"uint256","name":"productPrice","type":"uint256"},{"internalType":"uint256","name":"timestamp","type":"uint256"}],"internalType":"struct Token.Log[]","name":"","type":"tuple[]"}],"stateMutability":"view","type":"function"},{"inputs":[{"internalType":"string","name":"_adminMessage","type":"string"}],"name":"logAdminMessage","outputs":[],"stateMutability":"nonpayable","type":"function"},{"inputs":[{"internalType":"address","name":"user","type":"address"},{"internalType":"string","name":"productName","type":"string"},{"internalType":"uint256","name":"productPrice","type":"uint256"}],"name":"logProductPurchase","outputs":[],"stateMutability":"nonpayable","type":"function"},{"inputs":[{"internalType":"uint256","name":"","type":"uint256"}],"name":"logs","outputs":[{"internalType":"address","name":"user","type":"address"},{"internalType":"string","name":"action","type":"string"},{"internalType":"string","name":"productName","type":"string"},{"internalType":"uint256","name":"productPrice","type":"uint256"},{"internalType":"uint256","name":"timestamp","type":"uint256"}],"stateMutability":"view","type":"function"},{"inputs":[],"name":"message","outputs":[{"internalType":"string","name":"","type":"string"}],"stateMutability":"view","type":"function"},{"inputs":[],"name":"name","outputs":[{"internalType":"string","name":"","type":"string"}],"stateMutability":"view","type":"function"},{"inputs":[],"name":"owner","outputs":[{"internalType":"address","name":"","type":"address"}],"stateMutability":"view","type":"function"},{"inputs":[],"name":"symbol","outputs":[{"internalType":"string","name":"","type":"string"}],"stateMutability":"view","type":"function"},{"inputs":[],"name":"totalSupply","outputs":[{"internalType":"uint256","name":"","type":"uint256"}],"stateMutability":"view","type":"function"},{"inputs":[{"internalType":"address","name":"_to","type":"address"},{"internalType":"uint256","name":"_amount","type":"uint256"},{"internalType":"string","name":"m","type":"string"}],"name":"transfer","outputs":[],"stateMutability":"nonpayable","type":"function"}],"evm":{"bytecode":{"linkReferences":{},"object":"60806040526040518060400160405280600281526020017f4d790000000000000000000000000000000000000000000000000000000000008152506000908161004891906102f7565b506040518060400160405280600381526020017f4d485400000000000000000000000000000000000000000000000000000000008152506001908161008d91906102f7565b50620f42406002553480156100a157600080fd5b506103c9565b600081519050919050565b7f4e487b7100000000000000000000000000000000000000000000000000000000600052604160045260246000fd5b7f4e487b7100000000000000000000000000000000000000000000000000000000600052602260045260246000fd5b6000600282049050600182168061012857607f821691505b60208210810361013b5761013a6100e1565b5b50919050565b60008190508160005260206000209050919050565b60006020601f8301049050919050565b600082821b905092915050565b6000600883026101a37fffffffffffffffffffffffffffffffffffffffffffffffffffffffffffffffff82610166565b6101ad8683610166565b95508019841693508086168417925050509392505050565b6000819050919050565b6000819050919050565b60006101f46101ef6101ea846101c5565b6101cf565b6101c5565b9050919050565b6000819050919050565b61020e836101d9565b61022261021a826101fb565b848454610173565b825550505050565b600090565b61023761022a565b610242818484610205565b505050565b5b818110156102665761025b60008261022f565b600181019050610248565b5050565b601f8211156102ab5761027c81610141565b61028584610156565b81016020851015610294578190505b6102a86102a085610156565b830182610247565b50505b505050565b600082821c905092915050565b60006102ce600019846008026102b0565b1980831691505092915050565b60006102e783836102bd565b9150826002028217905092915050565b610300826100a7565b67ffffffffffffffff811115610319576103186100b2565b5b6103238254610110565b61032e82828561026a565b600060209050601f831160018114610361576000841561034f578287015190505b61035985826102db565b8655506103c1565b601f19841661036f86610141565b60005b8281101561039757848901518255600182019150602085019450602081019050610372565b868310156103b457848901516103b0601f8916826102bd565b8355505b6001600288020188555050505b505050505050565b6117a4806103d86000396000f3fe608060405234801561001057600080fd5b50600436106100cf5760003560e01c80637b8e36ec1161008c5780639b322de8116100665780639b322de8146101ec578063d90cd37e1461020a578063e21f37ce14610226578063e79899bd14610244576100cf565b80637b8e36ec146101945780638da5cb5b146101b057806395d89b41146101ce576100cf565b806306fdde03146100d457806318160ddd146100f257806326c11eb71461011057806356b8c7241461012c5780636588930c1461014857806370a0823114610164575b600080fd5b6100dc610278565b6040516100e99190610d99565b60405180910390f35b6100fa610306565b6040516101079190610dd4565b60405180910390f35b61012a60048036038101906101259190610f38565b61030c565b005b6101466004803603810190610141919061100b565b6103e8565b005b610162600480360381019061015d9190610f38565b61052b565b005b61017e6004803603810190610179919061107a565b6105f5565b60405161018b9190610dd4565b60405180910390f35b6101ae60048036038101906101a99190610f38565b61060d565b005b6101b86106e9565b6040516101c591906110b6565b60405180910390f35b6101d661070f565b6040516101e39190610d99565b60405180910390f35b6101f461079d565b6040516102019190611278565b60405180910390f35b610224600480360381019061021f919061129a565b61098a565b005b61022e610b05565b60405161023b9190610d99565b60405180910390f35b61025e60048036038101906102599190611309565b610b93565b60405161026f959493929190611336565b60405180910390f35b60008054610285906113c6565b80601f01602080910402602001604051908101604052809291908181526020018280546102b1906113c6565b80156102fe5780601f106102d3576101008083540402835291602001916102fe565b820191906000526020600020905b8154815290600101906020018083116102e157829003601f168201915b505050505081565b60025481565b60006005805461031b906113c6565b80601f0160208091040260200160405190810160405280929190818152602001828054610347906113c6565b80156103945780601f1061036957610100808354040283529160200191610394565b820191906000526020600020905b81548152906001019060200180831161037757829003601f168201915b5050505050905081600590816103aa91906115a3565b507f5b4717af615de779c9c12885d202645882ad93995957a99a4a1a145b3ccdbc1081836040516103dc929190611675565b60405180910390a15050565b6000600580546103f7906113c6565b80601f0160208091040260200160405190810160405280929190818152602001828054610423906113c6565b80156104705780601f1061044557610100808354040283529160200191610470565b820191906000526020600020905b81548152906001019060200180831161045357829003601f168201915b50505050509050816005908161048691906115a3565b507f5b4717af615de779c9c12885d202645882ad93995957a99a4a1a145b3ccdbc1081836040516104b8929190611675565b60405180910390a18373ffffffffffffffffffffffffffffffffffffffff163373ffffffffffffffffffffffffffffffffffffffff167fddf252ad1be2c89b69c2b068fc378daa952ba7f163c4a11628f55a4df523b3ef8560405161051d9190610dd4565b60405180910390a350505050565b600360009054906101000a900473ffffffffffffffffffffffffffffffffffffffff1673ffffffffffffffffffffffffffffffffffffffff163373ffffffffffffffffffffffffffffffffffffffff16146105bb576040517f08c379a00000000000000000000000000000000000000000000000000000000081526004016105b29061171e565b60405180910390fd5b7f27727882bd190f5a2f84e21914b553731940ed0fe50f31444893a208319c2c20816040516105ea9190610d99565b60405180910390a150565b60046020528060005260406000206000915090505481565b60006005805461061c906113c6565b80601f0160208091040260200160405190810160405280929190818152602001828054610648906113c6565b80156106955780601f1061066a57610100808354040283529160200191610695565b820191906000526020600020905b81548152906001019060200180831161067857829003601f168201915b5050505050905081600590816106ab91906115a3565b507f5b4717af615de779c9c12885d202645882ad93995957a99a4a1a145b3ccdbc1081836040516106dd929190611675565b60405180910390a15050565b600360009054906101000a900473ffffffffffffffffffffffffffffffffffffffff1681565b6001805461071c906113c6565b80601f0160208091040260200160405190810160405280929190818152602001828054610748906113c6565b80156107955780601f1061076a57610100808354040283529160200191610795565b820191906000526020600020905b81548152906001019060200180831161077857829003601f168201915b505050505081565b60606006805480602002602001604051908101604052809291908181526020016000905b8282101561098157838290600052602060002090600502016040518060a00160405290816000820160009054906101000a900473ffffffffffffffffffffffffffffffffffffffff1673ffffffffffffffffffffffffffffffffffffffff1673ffffffffffffffffffffffffffffffffffffffff16815260200160018201805461084a906113c6565b80601f0160208091040260200160405190810160405280929190818152602001828054610876906113c6565b80156108c35780601f10610898576101008083540402835291602001916108c3565b820191906000526020600020905b8154815290600101906020018083116108a657829003601f168201915b505050505081526020016002820180546108dc906113c6565b80601f0160208091040260200160405190810160405280929190818152602001828054610908906113c6565b80156109555780601f1061092a57610100808354040283529160200191610955565b820191906000526020600020905b81548152906001019060200180831161093857829003601f168201915b5050505050815260200160038201548152602001600482015481525050815260200190600101906107c1565b50505050905090565b60066040518060a001604052808573ffffffffffffffffffffffffffffffffffffffff1681526020016040518060400160405280600681526020017f626f756768740000000000000000000000000000000000000000000000000000815250815260200184815260200183815260200142815250908060018154018082558091505060019003906000526020600020906005020160009091909190915060008201518160000160006101000a81548173ffffffffffffffffffffffffffffffffffffffff021916908373ffffffffffffffffffffffffffffffffffffffff1602179055506020820151816001019081610a8391906115a3565b506040820151816002019081610a9991906115a3565b50606082015181600301556080820151816004015550508273ffffffffffffffffffffffffffffffffffffffff167f343bd6f115aa567392f0fcf8d8115375de15420f6bdddacdf9b2b80bc9ef4c5b8383604051610af892919061173e565b60405180910390a2505050565b60058054610b12906113c6565b80601f0160208091040260200160405190810160405280929190818152602001828054610b3e906113c6565b8015610b8b5780601f10610b6057610100808354040283529160200191610b8b565b820191906000526020600020905b815481529060010190602001808311610b6e57829003601f168201915b505050505081565b60068181548110610ba357600080fd5b90600052602060002090600502016000915090508060000160009054906101000a900473ffffffffffffffffffffffffffffffffffffffff1690806001018054610bec906113c6565b80601f0160208091040260200160405190810160405280929190818152602001828054610c18906113c6565b8015610c655780601f10610c3a57610100808354040283529160200191610c65565b820191906000526020600020905b815481529060010190602001808311610c4857829003601f168201915b505050505090806002018054610c7a906113c6565b80601f0160208091040260200160405190810160405280929190818152602001828054610ca6906113c6565b8015610cf35780601f10610cc857610100808354040283529160200191610cf3565b820191906000526020600020905b815481529060010190602001808311610cd657829003601f168201915b5050505050908060030154908060040154905085565b600081519050919050565b600082825260208201905092915050565b60005b83811015610d43578082015181840152602081019050610d28565b60008484015250505050565b6000601f19601f8301169050919050565b6000610d6b82610d09565b610d758185610d14565b9350610d85818560208601610d25565b610d8e81610d4f565b840191505092915050565b60006020820190508181036000830152610db38184610d60565b905092915050565b6000819050919050565b610dce81610dbb565b82525050565b6000602082019050610de96000830184610dc5565b92915050565b6000604051905090565b600080fd5b600080fd5b600080fd5b600080fd5b7f4e487b7100000000000000000000000000000000000000000000000000000000600052604160045260246000fd5b610e4582610d4f565b810181811067ffffffffffffffff82111715610e6457610e63610e0d565b5b80604052505050565b6000610e77610def565b9050610e838282610e3c565b919050565b600067ffffffffffffffff821115610ea357610ea2610e0d565b5b610eac82610d4f565b9050602081019050919050565b82818337600083830152505050565b6000610edb610ed684610e88565b610e6d565b905082815260208101848484011115610ef757610ef6610e08565b5b610f02848285610eb9565b509392505050565b600082601f830112610f1f57610f1e610e03565b5b8135610f2f848260208601610ec8565b91505092915050565b600060208284031215610f4e57610f4d610df9565b5b600082013567ffffffffffffffff811115610f6c57610f6b610dfe565b5b610f7884828501610f0a565b91505092915050565b600073ffffffffffffffffffffffffffffffffffffffff82169050919050565b6000610fac82610f81565b9050919050565b610fbc81610fa1565b8114610fc757600080fd5b50565b600081359050610fd981610fb3565b92915050565b610fe881610dbb565b8114610ff357600080fd5b50565b60008135905061100581610fdf565b92915050565b60008060006060848603121561102457611023610df9565b5b600061103286828701610fca565b935050602061104386828701610ff6565b925050604084013567ffffffffffffffff81111561106457611063610dfe565b5b61107086828701610f0a565b9150509250925092565b6000602082840312156110905761108f610df9565b5b600061109e84828501610fca565b91505092915050565b6110b081610fa1565b82525050565b60006020820190506110cb60008301846110a7565b92915050565b600081519050919050565b600082825260208201905092915050565b6000819050602082019050919050565b61110681610fa1565b82525050565b600082825260208201905092915050565b600061112882610d09565b611132818561110c565b9350611142818560208601610d25565b61114b81610d4f565b840191505092915050565b61115f81610dbb565b82525050565b600060a08301600083015161117d60008601826110fd565b5060208301518482036020860152611195828261111d565b915050604083015184820360408601526111af828261111d565b91505060608301516111c46060860182611156565b5060808301516111d76080860182611156565b508091505092915050565b60006111ee8383611165565b905092915050565b6000602082019050919050565b600061120e826110d1565b61121881856110dc565b93508360208202850161122a856110ed565b8060005b85811015611266578484038952815161124785826111e2565b9450611252836111f6565b925060208a0199505060018101905061122e565b50829750879550505050505092915050565b600060208201905081810360008301526112928184611203565b905092915050565b6000806000606084860312156112b3576112b2610df9565b5b60006112c186828701610fca565b935050602084013567ffffffffffffffff8111156112e2576112e1610dfe565b5b6112ee86828701610f0a565b92505060406112ff86828701610ff6565b9150509250925092565b60006020828403121561131f5761131e610df9565b5b600061132d84828501610ff6565b91505092915050565b600060a08201905061134b60008301886110a7565b818103602083015261135d8187610d60565b905081810360408301526113718186610d60565b90506113806060830185610dc5565b61138d6080830184610dc5565b9695505050505050565b7f4e487b7100000000000000000000000000000000000000000000000000000000600052602260045260246000fd5b600060028204905060018216806113de57607f821691505b6020821081036113f1576113f0611397565b5b50919050565b60008190508160005260206000209050919050565b60006020601f8301049050919050565b600082821b905092915050565b6000600883026114597fffffffffffffffffffffffffffffffffffffffffffffffffffffffffffffffff8261141c565b611463868361141c565b95508019841693508086168417925050509392505050565b6000819050919050565b60006114a061149b61149684610dbb565b61147b565b610dbb565b9050919050565b6000819050919050565b6114ba83611485565b6114ce6114c6826114a7565b848454611429565b825550505050565b600090565b6114e36114d6565b6114ee8184846114b1565b505050565b5b81811015611512576115076000826114db565b6001810190506114f4565b5050565b601f82111561155757611528816113f7565b6115318461140c565b81016020851015611540578190505b61155461154c8561140c565b8301826114f3565b50505b505050565b600082821c905092915050565b600061157a6000198460080261155c565b1980831691505092915050565b60006115938383611569565b9150826002028217905092915050565b6115ac82610d09565b67ffffffffffffffff8111156115c5576115c4610e0d565b5b6115cf82546113c6565b6115da828285611516565b600060209050601f83116001811461160d57600084156115fb578287015190505b6116058582611587565b86555061166d565b601f19841661161b866113f7565b60005b828110156116435784890151825560018201915060208501945060208101905061161e565b86831015611660578489015161165c601f891682611569565b8355505b6001600288020188555050505b505050505050565b6000604082019050818103600083015261168f8185610d60565b905081810360208301526116a38184610d60565b90509392505050565b7f4f6e6c7920746865206f776e65722063616e206c6f672061646d696e206d657360008201527f7361676573000000000000000000000000000000000000000000000000000000602082015250565b6000611708602583610d14565b9150611713826116ac565b604082019050919050565b60006020820190508181036000830152611737816116fb565b9050919050565b600060408201905081810360008301526117588185610d60565b90506117676020830184610dc5565b939250505056fea2646970667358221220ba2a33b8cfbf6ee20b8b08d333c026f58a3de53d3fb1b44665bb360d7a12b58364736f6c634300081b0033","opcodes":"PUSH1 0x80 PUSH1 0x40 MSTORE PUSH1 0x40 MLOAD DUP1 PUSH1 0x40 ADD PUSH1 0x40 MSTORE DUP1 PUSH1 0x2 DUP2 MSTORE PUSH1 0x20 ADD PUSH32 0x4D79000000000000000000000000000000000000000000000000000000000000 DUP2 MSTORE POP PUSH1 0x0 SWAP1 DUP2 PUSH2 0x48 SWAP2 SWAP1 PUSH2 0x2F7 JUMP JUMPDEST POP PUSH1 0x40 MLOAD DUP1 PUSH1 0x40 ADD PUSH1 0x40 MSTORE DUP1 PUSH1 0x3 DUP2 MSTORE PUSH1 0x20 ADD PUSH32 0x4D48540000000000000000000000000000000000000000000000000000000000 DUP2 MSTORE POP PUSH1 0x1 SWAP1 DUP2 PUSH2 0x8D SWAP2 SWAP1 PUSH2 0x2F7 JUMP JUMPDEST POP PUSH3 0xF4240 PUSH1 0x2 SSTORE CALLVALUE DUP1 ISZERO PUSH2 0xA1 JUMPI PUSH1 0x0 DUP1 REVERT JUMPDEST POP PUSH2 0x3C9 JUMP JUMPDEST PUSH1 0x0 DUP2 MLOAD SWAP1 POP SWAP2 SWAP1 POP JUMP JUMPDEST PUSH32 0x4E487B7100000000000000000000000000000000000000000000000000000000 PUSH1 0x0 MSTORE PUSH1 0x41 PUSH1 0x4 MSTORE PUSH1 0x24 PUSH1 0x0 REVERT JUMPDEST PUSH32 0x4E487B7100000000000000000000000000000000000000000000000000000000 PUSH1 0x0 MSTORE PUSH1 0x22 PUSH1 0x4 MSTORE PUSH1 0x24 PUSH1 0x0 REVERT JUMPDEST PUSH1 0x0 PUSH1 0x2 DUP3 DIV SWAP1 POP PUSH1 0x1 DUP3 AND DUP1 PUSH2 0x128 JUMPI PUSH1 0x7F DUP3 AND SWAP2 POP JUMPDEST PUSH1 0x20 DUP3 LT DUP2 SUB PUSH2 0x13B JUMPI PUSH2 0x13A PUSH2 0xE1 JUMP JUMPDEST JUMPDEST POP SWAP2 SWAP1 POP JUMP JUMPDEST PUSH1 0x0 DUP2 SWAP1 POP DUP2 PUSH1 0x0 MSTORE PUSH1 0x20 PUSH1 0x0 KECCAK256 SWAP1 POP SWAP2 SWAP1 POP JUMP JUMPDEST PUSH1 0x0 PUSH1 0x20 PUSH1 0x1F DUP4 ADD DIV SWAP1 POP SWAP2 SWAP1 POP JUMP JUMPDEST PUSH1 0x0 DUP3 DUP3 SHL SWAP1 POP SWAP3 SWAP2 POP POP JUMP JUMPDEST PUSH1 0x0 PUSH1 0x8 DUP4 MUL PUSH2 0x1A3 PUSH32 0xFFFFFFFFFFFFFFFFFFFFFFFFFFFFFFFFFFFFFFFFFFFFFFFFFFFFFFFFFFFFFFFF DUP3 PUSH2 0x166 JUMP JUMPDEST PUSH2 0x1AD DUP7 DUP4 PUSH2 0x166 JUMP JUMPDEST SWAP6 POP DUP1 NOT DUP5 AND SWAP4 POP DUP1 DUP7 AND DUP5 OR SWAP3 POP POP POP SWAP4 SWAP3 POP POP POP JUMP JUMPDEST PUSH1 0x0 DUP2 SWAP1 POP SWAP2 SWAP1 POP JUMP JUMPDEST PUSH1 0x0 DUP2 SWAP1 POP SWAP2 SWAP1 POP JUMP JUMPDEST PUSH1 0x0 PUSH2 0x1F4 PUSH2 0x1EF PUSH2 0x1EA DUP5 PUSH2 0x1C5 JUMP JUMPDEST PUSH2 0x1CF JUMP JUMPDEST PUSH2 0x1C5 JUMP JUMPDEST SWAP1 POP SWAP2 SWAP1 POP JUMP JUMPDEST PUSH1 0x0 DUP2 SWAP1 POP SWAP2 SWAP1 POP JUMP JUMPDEST PUSH2 0x20E DUP4 PUSH2 0x1D9 JUMP JUMPDEST PUSH2 0x222 PUSH2 0x21A DUP3 PUSH2 0x1FB JUMP JUMPDEST DUP5 DUP5 SLOAD PUSH2 0x173 JUMP JUMPDEST DUP3 SSTORE POP POP POP POP JUMP JUMPDEST PUSH1 0x0 SWAP1 JUMP JUMPDEST PUSH2 0x237 PUSH2 0x22A JUMP JUMPDEST PUSH2 0x242 DUP2 DUP5 DUP5 PUSH2 0x205 JUMP JUMPDEST POP POP POP JUMP JUMPDEST JUMPDEST DUP2 DUP2 LT ISZERO PUSH2 0x266 JUMPI PUSH2 0x25B PUSH1 0x0 DUP3 PUSH2 0x22F JUMP JUMPDEST PUSH1 0x1 DUP2 ADD SWAP1 POP PUSH2 0x248 JUMP JUMPDEST POP POP JUMP JUMPDEST PUSH1 0x1F DUP3 GT ISZERO PUSH2 0x2AB JUMPI PUSH2 0x27C DUP2 PUSH2 0x141 JUMP JUMPDEST PUSH2 0x285 DUP5 PUSH2 0x156 JUMP JUMPDEST DUP2 ADD PUSH1 0x20 DUP6 LT ISZERO PUSH2 0x294 JUMPI DUP2 SWAP1 POP JUMPDEST PUSH2 0x2A8 PUSH2 0x2A0 DUP6 PUSH2 0x156 JUMP JUMPDEST DUP4 ADD DUP3 PUSH2 0x247 JUMP JUMPDEST POP POP JUMPDEST POP POP POP JUMP JUMPDEST PUSH1 0x0 DUP3 DUP3 SHR SWAP1 POP SWAP3 SWAP2 POP POP JUMP JUMPDEST PUSH1 0x0 PUSH2 0x2CE PUSH1 0x0 NOT DUP5 PUSH1 0x8 MUL PUSH2 0x2B0 JUMP JUMPDEST NOT DUP1 DUP4 AND SWAP2 POP POP SWAP3 SWAP2 POP POP JUMP JUMPDEST PUSH1 0x0 PUSH2 0x2E7 DUP4 DUP4 PUSH2 0x2BD JUMP JUMPDEST SWAP2 POP DUP3 PUSH1 0x2 MUL DUP3 OR SWAP1 POP SWAP3 SWAP2 POP POP JUMP JUMPDEST PUSH2 0x300 DUP3 PUSH2 0xA7 JUMP JUMPDEST PUSH8 0xFFFFFFFFFFFFFFFF DUP2 GT ISZERO PUSH2 0x319 JUMPI PUSH2 0x318 PUSH2 0xB2 JUMP JUMPDEST JUMPDEST PUSH2 0x323 DUP3 SLOAD PUSH2 0x110 JUMP JUMPDEST PUSH2 0x32E DUP3 DUP3 DUP6 PUSH2 0x26A JUMP JUMPDEST PUSH1 0x0 PUSH1 0x20 SWAP1 POP PUSH1 0x1F DUP4 GT PUSH1 0x1 DUP2 EQ PUSH2 0x361 JUMPI PUSH1 0x0 DUP5 ISZERO PUSH2 0x34F JUMPI DUP3 DUP8 ADD MLOAD SWAP1 POP JUMPDEST PUSH2 0x359 DUP6 DUP3 PUSH2 0x2DB JUMP JUMPDEST DUP7 SSTORE POP PUSH2 0x3C1 JUMP JUMPDEST PUSH1 0x1F NOT DUP5 AND PUSH2 0x36F DUP7 PUSH2 0x141 JUMP JUMPDEST PUSH1 0x0 JUMPDEST DUP3 DUP2 LT ISZERO PUSH2 0x397 JUMPI DUP5 DUP10 ADD MLOAD DUP3 SSTORE PUSH1 0x1 DUP3 ADD SWAP2 POP PUSH1 0x20 DUP6 ADD SWAP5 POP PUSH1 0x20 DUP2 ADD SWAP1 POP PUSH2 0x372 JUMP JUMPDEST DUP7 DUP4 LT ISZERO PUSH2 0x3B4 JUMPI DUP5 DUP10 ADD MLOAD PUSH2 0x3B0 PUSH1 0x1F DUP10 AND DUP3 PUSH2 0x2BD JUMP JUMPDEST DUP4 SSTORE POP JUMPDEST PUSH1 0x1 PUSH1 0x2 DUP9 MUL ADD DUP9 SSTORE POP POP POP JUMPDEST POP POP POP POP POP POP JUMP JUMPDEST PUSH2 0x17A4 DUP1 PUSH2 0x3D8 PUSH1 0x0 CODECOPY PUSH1 0x0 RETURN INVALID PUSH1 0x80 PUSH1 0x40 MSTORE CALLVALUE DUP1 ISZERO PUSH2 0x10 JUMPI PUSH1 0x0 DUP1 REVERT JUMPDEST POP PUSH1 0x4 CALLDATASIZE LT PUSH2 0xCF JUMPI PUSH1 0x0 CALLDATALOAD PUSH1 0xE0 SHR DUP1 PUSH4 0x7B8E36EC GT PUSH2 0x8C JUMPI DUP1 PUSH4 0x9B322DE8 GT PUSH2 0x66 JUMPI DUP1 PUSH4 0x9B322DE8 EQ PUSH2 0x1EC JUMPI DUP1 PUSH4 0xD90CD37E EQ PUSH2 0x20A JUMPI DUP1 PUSH4 0xE21F37CE EQ PUSH2 0x226 JUMPI DUP1 PUSH4 0xE79899BD EQ PUSH2 0x244 JUMPI PUSH2 0xCF JUMP JUMPDEST DUP1 PUSH4 0x7B8E36EC EQ PUSH2 0x194 JUMPI DUP1 PUSH4 0x8DA5CB5B EQ PUSH2 0x1B0 JUMPI DUP1 PUSH4 0x95D89B41 EQ PUSH2 0x1CE JUMPI PUSH2 0xCF JUMP JUMPDEST DUP1 PUSH4 0x6FDDE03 EQ PUSH2 0xD4 JUMPI DUP1 PUSH4 0x18160DDD EQ PUSH2 0xF2 JUMPI DUP1 PUSH4 0x26C11EB7 EQ PUSH2 0x110 JUMPI DUP1 PUSH4 0x56B8C724 EQ PUSH2 0x12C JUMPI DUP1 PUSH4 0x6588930C EQ PUSH2 0x148 JUMPI DUP1 PUSH4 0x70A08231 EQ PUSH2 0x164 JUMPI JUMPDEST PUSH1 0x0 DUP1 REVERT JUMPDEST PUSH2 0xDC PUSH2 0x278 JUMP JUMPDEST PUSH1 0x40 MLOAD PUSH2 0xE9 SWAP2 SWAP1 PUSH2 0xD99 JUMP JUMPDEST PUSH1 0x40 MLOAD DUP1 SWAP2 SUB SWAP1 RETURN JUMPDEST PUSH2 0xFA PUSH2 0x306 JUMP JUMPDEST PUSH1 0x40 MLOAD PUSH2 0x107 SWAP2 SWAP1 PUSH2 0xDD4 JUMP JUMPDEST PUSH1 0x40 MLOAD DUP1 SWAP2 SUB SWAP1 RETURN JUMPDEST PUSH2 0x12A PUSH1 0x4 DUP1 CALLDATASIZE SUB DUP2 ADD SWAP1 PUSH2 0x125 SWAP2 SWAP1 PUSH2 0xF38 JUMP JUMPDEST PUSH2 0x30C JUMP JUMPDEST STOP JUMPDEST PUSH2 0x146 PUSH1 0x4 DUP1 CALLDATASIZE SUB DUP2 ADD SWAP1 PUSH2 0x141 SWAP2 SWAP1 PUSH2 0x100B JUMP JUMPDEST PUSH2 0x3E8 JUMP JUMPDEST STOP JUMPDEST PUSH2 0x162 PUSH1 0x4 DUP1 CALLDATASIZE SUB DUP2 ADD SWAP1 PUSH2 0x15D SWAP2 SWAP1 PUSH2 0xF38 JUMP JUMPDEST PUSH2 0x52B JUMP JUMPDEST STOP JUMPDEST PUSH2 0x17E PUSH1 0x4 DUP1 CALLDATASIZE SUB DUP2 ADD SWAP1 PUSH2 0x179 SWAP2 SWAP1 PUSH2 0x107A JUMP JUMPDEST PUSH2 0x5F5 JUMP JUMPDEST PUSH1 0x40 MLOAD PUSH2 0x18B SWAP2 SWAP1 PUSH2 0xDD4 JUMP JUMPDEST PUSH1 0x40 MLOAD DUP1 SWAP2 SUB SWAP1 RETURN JUMPDEST PUSH2 0x1AE PUSH1 0x4 DUP1 CALLDATASIZE SUB DUP2 ADD SWAP1 PUSH2 0x1A9 SWAP2 SWAP1 PUSH2 0xF38 JUMP JUMPDEST PUSH2 0x60D JUMP JUMPDEST STOP JUMPDEST PUSH2 0x1B8 PUSH2 0x6E9 JUMP JUMPDEST PUSH1 0x40 MLOAD PUSH2 0x1C5 SWAP2 SWAP1 PUSH2 0x10B6 JUMP JUMPDEST PUSH1 0x40 MLOAD DUP1 SWAP2 SUB SWAP1 RETURN JUMPDEST PUSH2 0x1D6 PUSH2 0x70F JUMP JUMPDEST PUSH1 0x40 MLOAD PUSH2 0x1E3 SWAP2 SWAP1 PUSH2 0xD99 JUMP JUMPDEST PUSH1 0x40 MLOAD DUP1 SWAP2 SUB SWAP1 RETURN JUMPDEST PUSH2 0x1F4 PUSH2 0x79D JUMP JUMPDEST PUSH1 0x40 MLOAD PUSH2 0x201 SWAP2 SWAP1 PUSH2 0x1278 JUMP JUMPDEST PUSH1 0x40 MLOAD DUP1 SWAP2 SUB SWAP1 RETURN JUMPDEST PUSH2 0x224 PUSH1 0x4 DUP1 CALLDATASIZE SUB DUP2 ADD SWAP1 PUSH2 0x21F SWAP2 SWAP1 PUSH2 0x129A JUMP JUMPDEST PUSH2 0x98A JUMP JUMPDEST STOP JUMPDEST PUSH2 0x22E PUSH2 0xB05 JUMP JUMPDEST PUSH1 0x40 MLOAD PUSH2 0x23B SWAP2 SWAP1 PUSH2 0xD99 JUMP JUMPDEST PUSH1 0x40 MLOAD DUP1 SWAP2 SUB SWAP1 RETURN JUMPDEST PUSH2 0x25E PUSH1 0x4 DUP1 CALLDATASIZE SUB DUP2 ADD SWAP1 PUSH2 0x259 SWAP2 SWAP1 PUSH2 0x1309 JUMP JUMPDEST PUSH2 0xB93 JUMP JUMPDEST PUSH1 0x40 MLOAD PUSH2 0x26F SWAP6 SWAP5 SWAP4 SWAP3 SWAP2 SWAP1 PUSH2 0x1336 JUMP JUMPDEST PUSH1 0x40 MLOAD DUP1 SWAP2 SUB SWAP1 RETURN JUMPDEST PUSH1 0x0 DUP1 SLOAD PUSH2 0x285 SWAP1 PUSH2 0x13C6 JUMP JUMPDEST DUP1 PUSH1 0x1F ADD PUSH1 0x20 DUP1 SWAP2 DIV MUL PUSH1 0x20 ADD PUSH1 0x40 MLOAD SWAP1 DUP2 ADD PUSH1 0x40 MSTORE DUP1 SWAP3 SWAP2 SWAP1 DUP2 DUP2 MSTORE PUSH1 0x20 ADD DUP3 DUP1 SLOAD PUSH2 0x2B1 SWAP1 PUSH2 0x13C6 JUMP JUMPDEST DUP1 ISZERO PUSH2 0x2FE JUMPI DUP1 PUSH1 0x1F LT PUSH2 0x2D3 JUMPI PUSH2 0x100 DUP1 DUP4 SLOAD DIV MUL DUP4 MSTORE SWAP2 PUSH1 0x20 ADD SWAP2 PUSH2 0x2FE JUMP JUMPDEST DUP3 ADD SWAP2 SWAP1 PUSH1 0x0 MSTORE PUSH1 0x20 PUSH1 0x0 KECCAK256 SWAP1 JUMPDEST DUP2 SLOAD DUP2 MSTORE SWAP1 PUSH1 0x1 ADD SWAP1 PUSH1 0x20 ADD DUP1 DUP4 GT PUSH2 0x2E1 JUMPI DUP3 SWAP1 SUB PUSH1 0x1F AND DUP3 ADD SWAP2 JUMPDEST POP POP POP POP POP DUP2 JUMP JUMPDEST PUSH1 0x2 SLOAD DUP2 JUMP JUMPDEST PUSH1 0x0 PUSH1 0x5 DUP1 SLOAD PUSH2 0x31B SWAP1 PUSH2 0x13C6 JUMP JUMPDEST DUP1 PUSH1 0x1F ADD PUSH1 0x20 DUP1 SWAP2 DIV MUL PUSH1 0x20 ADD PUSH1 0x40 MLOAD SWAP1 DUP2 ADD PUSH1 0x40 MSTORE DUP1 SWAP3 SWAP2 SWAP1 DUP2 DUP2 MSTORE PUSH1 0x20 ADD DUP3 DUP1 SLOAD PUSH2 0x347 SWAP1 PUSH2 0x13C6 JUMP JUMPDEST DUP1 ISZERO PUSH2 0x394 JUMPI DUP1 PUSH1 0x1F LT PUSH2 0x369 JUMPI PUSH2 0x100 DUP1 DUP4 SLOAD DIV MUL DUP4 MSTORE SWAP2 PUSH1 0x20 ADD SWAP2 PUSH2 0x394 JUMP JUMPDEST DUP3 ADD SWAP2 SWAP1 PUSH1 0x0 MSTORE PUSH1 0x20 PUSH1 0x0 KECCAK256 SWAP1 JUMPDEST DUP2 SLOAD DUP2 MSTORE SWAP1 PUSH1 0x1 ADD SWAP1 PUSH1 0x20 ADD DUP1 DUP4 GT PUSH2 0x377 JUMPI DUP3 SWAP1 SUB PUSH1 0x1F AND DUP3 ADD SWAP2 JUMPDEST POP POP POP POP POP SWAP1 POP DUP2 PUSH1 0x5 SWAP1 DUP2 PUSH2 0x3AA SWAP2 SWAP1 PUSH2 0x15A3 JUMP JUMPDEST POP PUSH32 0x5B4717AF615DE779C9C12885D202645882AD93995957A99A4A1A145B3CCDBC10 DUP2 DUP4 PUSH1 0x40 MLOAD PUSH2 0x3DC SWAP3 SWAP2 SWAP1 PUSH2 0x1675 JUMP JUMPDEST PUSH1 0x40 MLOAD DUP1 SWAP2 SUB SWAP1 LOG1 POP POP JUMP JUMPDEST PUSH1 0x0 PUSH1 0x5 DUP1 SLOAD PUSH2 0x3F7 SWAP1 PUSH2 0x13C6 JUMP JUMPDEST DUP1 PUSH1 0x1F ADD PUSH1 0x20 DUP1 SWAP2 DIV MUL PUSH1 0x20 ADD PUSH1 0x40 MLOAD SWAP1 DUP2 ADD PUSH1 0x40 MSTORE DUP1 SWAP3 SWAP2 SWAP1 DUP2 DUP2 MSTORE PUSH1 0x20 ADD DUP3 DUP1 SLOAD PUSH2 0x423 SWAP1 PUSH2 0x13C6 JUMP JUMPDEST DUP1 ISZERO PUSH2 0x470 JUMPI DUP1 PUSH1 0x1F LT PUSH2 0x445 JUMPI PUSH2 0x100 DUP1 DUP4 SLOAD DIV MUL DUP4 MSTORE SWAP2 PUSH1 0x20 ADD SWAP2 PUSH2 0x470 JUMP JUMPDEST DUP3 ADD SWAP2 SWAP1 PUSH1 0x0 MSTORE PUSH1 0x20 PUSH1 0x0 KECCAK256 SWAP1 JUMPDEST DUP2 SLOAD DUP2 MSTORE SWAP1 PUSH1 0x1 ADD SWAP1 PUSH1 0x20 ADD DUP1 DUP4 GT PUSH2 0x453 JUMPI DUP3 SWAP1 SUB PUSH1 0x1F AND DUP3 ADD SWAP2 JUMPDEST POP POP POP POP POP SWAP1 POP DUP2 PUSH1 0x5 SWAP1 DUP2 PUSH2 0x486 SWAP2 SWAP1 PUSH2 0x15A3 JUMP JUMPDEST POP PUSH32 0x5B4717AF615DE779C9C12885D202645882AD93995957A99A4A1A145B3CCDBC10 DUP2 DUP4 PUSH1 0x40 MLOAD PUSH2 0x4B8 SWAP3 SWAP2 SWAP1 PUSH2 0x1675 JUMP JUMPDEST PUSH1 0x40 MLOAD DUP1 SWAP2 SUB SWAP1 LOG1 DUP4 PUSH20 0xFFFFFFFFFFFFFFFFFFFFFFFFFFFFFFFFFFFFFFFF AND CALLER PUSH20 0xFFFFFFFFFFFFFFFFFFFFFFFFFFFFFFFFFFFFFFFF AND PUSH32 0xDDF252AD1BE2C89B69C2B068FC378DAA952BA7F163C4A11628F55A4DF523B3EF DUP6 PUSH1 0x40 MLOAD PUSH2 0x51D SWAP2 SWAP1 PUSH2 0xDD4 JUMP JUMPDEST PUSH1 0x40 MLOAD DUP1 SWAP2 SUB SWAP1 LOG3 POP POP POP POP JUMP JUMPDEST PUSH1 0x3 PUSH1 0x0 SWAP1 SLOAD SWAP1 PUSH2 0x100 EXP SWAP1 DIV PUSH20 0xFFFFFFFFFFFFFFFFFFFFFFFFFFFFFFFFFFFFFFFF AND PUSH20 0xFFFFFFFFFFFFFFFFFFFFFFFFFFFFFFFFFFFFFFFF AND CALLER PUSH20 0xFFFFFFFFFFFFFFFFFFFFFFFFFFFFFFFFFFFFFFFF AND EQ PUSH2 0x5BB JUMPI PUSH1 0x40 MLOAD PUSH32 0x8C379A000000000000000000000000000000000000000000000000000000000 DUP2 MSTORE PUSH1 0x4 ADD PUSH2 0x5B2 SWAP1 PUSH2 0x171E JUMP JUMPDEST PUSH1 0x40 MLOAD DUP1 SWAP2 SUB SWAP1 REVERT JUMPDEST PUSH32 0x27727882BD190F5A2F84E21914B553731940ED0FE50F31444893A208319C2C20 DUP2 PUSH1 0x40 MLOAD PUSH2 0x5EA SWAP2 SWAP1 PUSH2 0xD99 JUMP JUMPDEST PUSH1 0x40 MLOAD DUP1 SWAP2 SUB SWAP1 LOG1 POP JUMP JUMPDEST PUSH1 0x4 PUSH1 0x20 MSTORE DUP1 PUSH1 0x0 MSTORE PUSH1 0x40 PUSH1 0x0 KECCAK256 PUSH1 0x0 SWAP2 POP SWAP1 POP SLOAD DUP2 JUMP JUMPDEST PUSH1 0x0 PUSH1 0x5 DUP1 SLOAD PUSH2 0x61C SWAP1 PUSH2 0x13C6 JUMP JUMPDEST DUP1 PUSH1 0x1F ADD PUSH1 0x20 DUP1 SWAP2 DIV MUL PUSH1 0x20 ADD PUSH1 0x40 MLOAD SWAP1 DUP2 ADD PUSH1 0x40 MSTORE DUP1 SWAP3 SWAP2 SWAP1 DUP2 DUP2 MSTORE PUSH1 0x20 ADD DUP3 DUP1 SLOAD PUSH2 0x648 SWAP1 PUSH2 0x13C6 JUMP JUMPDEST DUP1 ISZERO PUSH2 0x695 JUMPI DUP1 PUSH1 0x1F LT PUSH2 0x66A JUMPI PUSH2 0x100 DUP1 DUP4 SLOAD DIV MUL DUP4 MSTORE SWAP2 PUSH1 0x20 ADD SWAP2 PUSH2 0x695 JUMP JUMPDEST DUP3 ADD SWAP2 SWAP1 PUSH1 0x0 MSTORE PUSH1 0x20 PUSH1 0x0 KECCAK256 SWAP1 JUMPDEST DUP2 SLOAD DUP2 MSTORE SWAP1 PUSH1 0x1 ADD SWAP1 PUSH1 0x20 ADD DUP1 DUP4 GT PUSH2 0x678 JUMPI DUP3 SWAP1 SUB PUSH1 0x1F AND DUP3 ADD SWAP2 JUMPDEST POP POP POP POP POP SWAP1 POP DUP2 PUSH1 0x5 SWAP1 DUP2 PUSH2 0x6AB SWAP2 SWAP1 PUSH2 0x15A3 JUMP JUMPDEST POP PUSH32 0x5B4717AF615DE779C9C12885D202645882AD93995957A99A4A1A145B3CCDBC10 DUP2 DUP4 PUSH1 0x40 MLOAD PUSH2 0x6DD SWAP3 SWAP2 SWAP1 PUSH2 0x1675 JUMP JUMPDEST PUSH1 0x40 MLOAD DUP1 SWAP2 SUB SWAP1 LOG1 POP POP JUMP JUMPDEST PUSH1 0x3 PUSH1 0x0 SWAP1 SLOAD SWAP1 PUSH2 0x100 EXP SWAP1 DIV PUSH20 0xFFFFFFFFFFFFFFFFFFFFFFFFFFFFFFFFFFFFFFFF AND DUP2 JUMP JUMPDEST PUSH1 0x1 DUP1 SLOAD PUSH2 0x71C SWAP1 PUSH2 0x13C6 JUMP JUMPDEST DUP1 PUSH1 0x1F ADD PUSH1 0x20 DUP1 SWAP2 DIV MUL PUSH1 0x20 ADD PUSH1 0x40 MLOAD SWAP1 DUP2 ADD PUSH1 0x40 MSTORE DUP1 SWAP3 SWAP2 SWAP1 DUP2 DUP2 MSTORE PUSH1 0x20 ADD DUP3 DUP1 SLOAD PUSH2 0x748 SWAP1 PUSH2 0x13C6 JUMP JUMPDEST DUP1 ISZERO PUSH2 0x795 JUMPI DUP1 PUSH1 0x1F LT PUSH2 0x76A JUMPI PUSH2 0x100 DUP1 DUP4 SLOAD DIV MUL DUP4 MSTORE SWAP2 PUSH1 0x20 ADD SWAP2 PUSH2 0x795 JUMP JUMPDEST DUP3 ADD SWAP2 SWAP1 PUSH1 0x0 MSTORE PUSH1 0x20 PUSH1 0x0 KECCAK256 SWAP1 JUMPDEST DUP2 SLOAD DUP2 MSTORE SWAP1 PUSH1 0x1 ADD SWAP1 PUSH1 0x20 ADD DUP1 DUP4 GT PUSH2 0x778 JUMPI DUP3 SWAP1 SUB PUSH1 0x1F AND DUP3 ADD SWAP2 JUMPDEST POP POP POP POP POP DUP2 JUMP JUMPDEST PUSH1 0x60 PUSH1 0x6 DUP1 SLOAD DUP1 PUSH1 0x20 MUL PUSH1 0x20 ADD PUSH1 0x40 MLOAD SWAP1 DUP2 ADD PUSH1 0x40 MSTORE DUP1 SWAP3 SWAP2 SWAP1 DUP2 DUP2 MSTORE PUSH1 0x20 ADD PUSH1 0x0 SWAP1 JUMPDEST DUP3 DUP3 LT ISZERO PUSH2 0x981 JUMPI DUP4 DUP3 SWAP1 PUSH1 0x0 MSTORE PUSH1 0x20 PUSH1 0x0 KECCAK256 SWAP1 PUSH1 0x5 MUL ADD PUSH1 0x40 MLOAD DUP1 PUSH1 0xA0 ADD PUSH1 0x40 MSTORE SWAP1 DUP2 PUSH1 0x0 DUP3 ADD PUSH1 0x0 SWAP1 SLOAD SWAP1 PUSH2 0x100 EXP SWAP1 DIV PUSH20 0xFFFFFFFFFFFFFFFFFFFFFFFFFFFFFFFFFFFFFFFF AND PUSH20 0xFFFFFFFFFFFFFFFFFFFFFFFFFFFFFFFFFFFFFFFF AND PUSH20 0xFFFFFFFFFFFFFFFFFFFFFFFFFFFFFFFFFFFFFFFF AND DUP2 MSTORE PUSH1 0x20 ADD PUSH1 0x1 DUP3 ADD DUP1 SLOAD PUSH2 0x84A SWAP1 PUSH2 0x13C6 JUMP JUMPDEST DUP1 PUSH1 0x1F ADD PUSH1 0x20 DUP1 SWAP2 DIV MUL PUSH1 0x20 ADD PUSH1 0x40 MLOAD SWAP1 DUP2 ADD PUSH1 0x40 MSTORE DUP1 SWAP3 SWAP2 SWAP1 DUP2 DUP2 MSTORE PUSH1 0x20 ADD DUP3 DUP1 SLOAD PUSH2 0x876 SWAP1 PUSH2 0x13C6 JUMP JUMPDEST DUP1 ISZERO PUSH2 0x8C3 JUMPI DUP1 PUSH1 0x1F LT PUSH2 0x898 JUMPI PUSH2 0x100 DUP1 DUP4 SLOAD DIV MUL DUP4 MSTORE SWAP2 PUSH1 0x20 ADD SWAP2 PUSH2 0x8C3 JUMP JUMPDEST DUP3 ADD SWAP2 SWAP1 PUSH1 0x0 MSTORE PUSH1 0x20 PUSH1 0x0 KECCAK256 SWAP1 JUMPDEST DUP2 SLOAD DUP2 MSTORE SWAP1 PUSH1 0x1 ADD SWAP1 PUSH1 0x20 ADD DUP1 DUP4 GT PUSH2 0x8A6 JUMPI DUP3 SWAP1 SUB PUSH1 0x1F AND DUP3 ADD SWAP2 JUMPDEST POP POP POP POP POP DUP2 MSTORE PUSH1 0x20 ADD PUSH1 0x2 DUP3 ADD DUP1 SLOAD PUSH2 0x8DC SWAP1 PUSH2 0x13C6 JUMP JUMPDEST DUP1 PUSH1 0x1F ADD PUSH1 0x20 DUP1 SWAP2 DIV MUL PUSH1 0x20 ADD PUSH1 0x40 MLOAD SWAP1 DUP2 ADD PUSH1 0x40 MSTORE DUP1 SWAP3 SWAP2 SWAP1 DUP2 DUP2 MSTORE PUSH1 0x20 ADD DUP3 DUP1 SLOAD PUSH2 0x908 SWAP1 PUSH2 0x13C6 JUMP JUMPDEST DUP1 ISZERO PUSH2 0x955 JUMPI DUP1 PUSH1 0x1F LT PUSH2 0x92A JUMPI PUSH2 0x100 DUP1 DUP4 SLOAD DIV MUL DUP4 MSTORE SWAP2 PUSH1 0x20 ADD SWAP2 PUSH2 0x955 JUMP JUMPDEST DUP3 ADD SWAP2 SWAP1 PUSH1 0x0 MSTORE PUSH1 0x20 PUSH1 0x0 KECCAK256 SWAP1 JUMPDEST DUP2 SLOAD DUP2 MSTORE SWAP1 PUSH1 0x1 ADD SWAP1 PUSH1 0x20 ADD DUP1 DUP4 GT PUSH2 0x938 JUMPI DUP3 SWAP1 SUB PUSH1 0x1F AND DUP3 ADD SWAP2 JUMPDEST POP POP POP POP POP DUP2 MSTORE PUSH1 0x20 ADD PUSH1 0x3 DUP3 ADD SLOAD DUP2 MSTORE PUSH1 0x20 ADD PUSH1 0x4 DUP3 ADD SLOAD DUP2 MSTORE POP POP DUP2 MSTORE PUSH1 0x20 ADD SWAP1 PUSH1 0x1 ADD SWAP1 PUSH2 0x7C1 JUMP JUMPDEST POP POP POP POP SWAP1 POP SWAP1 JUMP JUMPDEST PUSH1 0x6 PUSH1 0x40 MLOAD DUP1 PUSH1 0xA0 ADD PUSH1 0x40 MSTORE DUP1 DUP6 PUSH20 0xFFFFFFFFFFFFFFFFFFFFFFFFFFFFFFFFFFFFFFFF AND DUP2 MSTORE PUSH1 0x20 ADD PUSH1 0x40 MLOAD DUP1 PUSH1 0x40 ADD PUSH1 0x40 MSTORE DUP1 PUSH1 0x6 DUP2 MSTORE PUSH1 0x20 ADD PUSH32 0x626F756768740000000000000000000000000000000000000000000000000000 DUP2 MSTORE POP DUP2 MSTORE PUSH1 0x20 ADD DUP5 DUP2 MSTORE PUSH1 0x20 ADD DUP4 DUP2 MSTORE PUSH1 0x20 ADD TIMESTAMP DUP2 MSTORE POP SWAP1 DUP1 PUSH1 0x1 DUP2 SLOAD ADD DUP1 DUP3 SSTORE DUP1 SWAP2 POP POP PUSH1 0x1 SWAP1 SUB SWAP1 PUSH1 0x0 MSTORE PUSH1 0x20 PUSH1 0x0 KECCAK256 SWAP1 PUSH1 0x5 MUL ADD PUSH1 0x0 SWAP1 SWAP2 SWAP1 SWAP2 SWAP1 SWAP2 POP PUSH1 0x0 DUP3 ADD MLOAD DUP2 PUSH1 0x0 ADD PUSH1 0x0 PUSH2 0x100 EXP DUP2 SLOAD DUP2 PUSH20 0xFFFFFFFFFFFFFFFFFFFFFFFFFFFFFFFFFFFFFFFF MUL NOT AND SWAP1 DUP4 PUSH20 0xFFFFFFFFFFFFFFFFFFFFFFFFFFFFFFFFFFFFFFFF AND MUL OR SWAP1 SSTORE POP PUSH1 0x20 DUP3 ADD MLOAD DUP2 PUSH1 0x1 ADD SWAP1 DUP2 PUSH2 0xA83 SWAP2 SWAP1 PUSH2 0x15A3 JUMP JUMPDEST POP PUSH1 0x40 DUP3 ADD MLOAD DUP2 PUSH1 0x2 ADD SWAP1 DUP2 PUSH2 0xA99 SWAP2 SWAP1 PUSH2 0x15A3 JUMP JUMPDEST POP PUSH1 0x60 DUP3 ADD MLOAD DUP2 PUSH1 0x3 ADD SSTORE PUSH1 0x80 DUP3 ADD MLOAD DUP2 PUSH1 0x4 ADD SSTORE POP POP DUP3 PUSH20 0xFFFFFFFFFFFFFFFFFFFFFFFFFFFFFFFFFFFFFFFF AND PUSH32 0x343BD6F115AA567392F0FCF8D8115375DE15420F6BDDDACDF9B2B80BC9EF4C5B DUP4 DUP4 PUSH1 0x40 MLOAD PUSH2 0xAF8 SWAP3 SWAP2 SWAP1 PUSH2 0x173E JUMP JUMPDEST PUSH1 0x40 MLOAD DUP1 SWAP2 SUB SWAP1 LOG2 POP POP POP JUMP JUMPDEST PUSH1 0x5 DUP1 SLOAD PUSH2 0xB12 SWAP1 PUSH2 0x13C6 JUMP JUMPDEST DUP1 PUSH1 0x1F ADD PUSH1 0x20 DUP1 SWAP2 DIV MUL PUSH1 0x20 ADD PUSH1 0x40 MLOAD SWAP1 DUP2 ADD PUSH1 0x40 MSTORE DUP1 SWAP3 SWAP2 SWAP1 DUP2 DUP2 MSTORE PUSH1 0x20 ADD DUP3 DUP1 SLOAD PUSH2 0xB3E SWAP1 PUSH2 0x13C6 JUMP JUMPDEST DUP1 ISZERO PUSH2 0xB8B JUMPI DUP1 PUSH1 0x1F LT PUSH2 0xB60 JUMPI PUSH2 0x100 DUP1 DUP4 SLOAD DIV MUL DUP4 MSTORE SWAP2 PUSH1 0x20 ADD SWAP2 PUSH2 0xB8B JUMP JUMPDEST DUP3 ADD SWAP2 SWAP1 PUSH1 0x0 MSTORE PUSH1 0x20 PUSH1 0x0 KECCAK256 SWAP1 JUMPDEST DUP2 SLOAD DUP2 MSTORE SWAP1 PUSH1 0x1 ADD SWAP1 PUSH1 0x20 ADD DUP1 DUP4 GT PUSH2 0xB6E JUMPI DUP3 SWAP1 SUB PUSH1 0x1F AND DUP3 ADD SWAP2 JUMPDEST POP POP POP POP POP DUP2 JUMP JUMPDEST PUSH1 0x6 DUP2 DUP2 SLOAD DUP2 LT PUSH2 0xBA3 JUMPI PUSH1 0x0 DUP1 REVERT JUMPDEST SWAP1 PUSH1 0x0 MSTORE PUSH1 0x20 PUSH1 0x0 KECCAK256 SWAP1 PUSH1 0x5 MUL ADD PUSH1 0x0 SWAP2 POP SWAP1 POP DUP1 PUSH1 0x0 ADD PUSH1 0x0 SWAP1 SLOAD SWAP1 PUSH2 0x100 EXP SWAP1 DIV PUSH20 0xFFFFFFFFFFFFFFFFFFFFFFFFFFFFFFFFFFFFFFFF AND SWAP1 DUP1 PUSH1 0x1 ADD DUP1 SLOAD PUSH2 0xBEC SWAP1 PUSH2 0x13C6 JUMP JUMPDEST DUP1 PUSH1 0x1F ADD PUSH1 0x20 DUP1 SWAP2 DIV MUL PUSH1 0x20 ADD PUSH1 0x40 MLOAD SWAP1 DUP2 ADD PUSH1 0x40 MSTORE DUP1 SWAP3 SWAP2 SWAP1 DUP2 DUP2 MSTORE PUSH1 0x20 ADD DUP3 DUP1 SLOAD PUSH2 0xC18 SWAP1 PUSH2 0x13C6 JUMP JUMPDEST DUP1 ISZERO PUSH2 0xC65 JUMPI DUP1 PUSH1 0x1F LT PUSH2 0xC3A JUMPI PUSH2 0x100 DUP1 DUP4 SLOAD DIV MUL DUP4 MSTORE SWAP2 PUSH1 0x20 ADD SWAP2 PUSH2 0xC65 JUMP JUMPDEST DUP3 ADD SWAP2 SWAP1 PUSH1 0x0 MSTORE PUSH1 0x20 PUSH1 0x0 KECCAK256 SWAP1 JUMPDEST DUP2 SLOAD DUP2 MSTORE SWAP1 PUSH1 0x1 ADD SWAP1 PUSH1 0x20 ADD DUP1 DUP4 GT PUSH2 0xC48 JUMPI DUP3 SWAP1 SUB PUSH1 0x1F AND DUP3 ADD SWAP2 JUMPDEST POP POP POP POP POP SWAP1 DUP1 PUSH1 0x2 ADD DUP1 SLOAD PUSH2 0xC7A SWAP1 PUSH2 0x13C6 JUMP JUMPDEST DUP1 PUSH1 0x1F ADD PUSH1 0x20 DUP1 SWAP2 DIV MUL PUSH1 0x20 ADD PUSH1 0x40 MLOAD SWAP1 DUP2 ADD PUSH1 0x40 MSTORE DUP1 SWAP3 SWAP2 SWAP1 DUP2 DUP2 MSTORE PUSH1 0x20 ADD DUP3 DUP1 SLOAD PUSH2 0xCA6 SWAP1 PUSH2 0x13C6 JUMP JUMPDEST DUP1 ISZERO PUSH2 0xCF3 JUMPI DUP1 PUSH1 0x1F LT PUSH2 0xCC8 JUMPI PUSH2 0x100 DUP1 DUP4 SLOAD DIV MUL DUP4 MSTORE SWAP2 PUSH1 0x20 ADD SWAP2 PUSH2 0xCF3 JUMP JUMPDEST DUP3 ADD SWAP2 SWAP1 PUSH1 0x0 MSTORE PUSH1 0x20 PUSH1 0x0 KECCAK256 SWAP1 JUMPDEST DUP2 SLOAD DUP2 MSTORE SWAP1 PUSH1 0x1 ADD SWAP1 PUSH1 0x20 ADD DUP1 DUP4 GT PUSH2 0xCD6 JUMPI DUP3 SWAP1 SUB PUSH1 0x1F AND DUP3 ADD SWAP2 JUMPDEST POP POP POP POP POP SWAP1 DUP1 PUSH1 0x3 ADD SLOAD SWAP1 DUP1 PUSH1 0x4 ADD SLOAD SWAP1 POP DUP6 JUMP JUMPDEST PUSH1 0x0 DUP2 MLOAD SWAP1 POP SWAP2 SWAP1 POP JUMP JUMPDEST PUSH1 0x0 DUP3 DUP3 MSTORE PUSH1 0x20 DUP3 ADD SWAP1 POP SWAP3 SWAP2 POP POP JUMP JUMPDEST PUSH1 0x0 JUMPDEST DUP4 DUP2 LT ISZERO PUSH2 0xD43 JUMPI DUP1 DUP3 ADD MLOAD DUP2 DUP5 ADD MSTORE PUSH1 0x20 DUP2 ADD SWAP1 POP PUSH2 0xD28 JUMP JUMPDEST PUSH1 0x0 DUP5 DUP5 ADD MSTORE POP POP POP POP JUMP JUMPDEST PUSH1 0x0 PUSH1 0x1F NOT PUSH1 0x1F DUP4 ADD AND SWAP1 POP SWAP2 SWAP1 POP JUMP JUMPDEST PUSH1 0x0 PUSH2 0xD6B DUP3 PUSH2 0xD09 JUMP JUMPDEST PUSH2 0xD75 DUP2 DUP6 PUSH2 0xD14 JUMP JUMPDEST SWAP4 POP PUSH2 0xD85 DUP2 DUP6 PUSH1 0x20 DUP7 ADD PUSH2 0xD25 JUMP JUMPDEST PUSH2 0xD8E DUP2 PUSH2 0xD4F JUMP JUMPDEST DUP5 ADD SWAP2 POP POP SWAP3 SWAP2 POP POP JUMP JUMPDEST PUSH1 0x0 PUSH1 0x20 DUP3 ADD SWAP1 POP DUP2 DUP2 SUB PUSH1 0x0 DUP4 ADD MSTORE PUSH2 0xDB3 DUP2 DUP5 PUSH2 0xD60 JUMP JUMPDEST SWAP1 POP SWAP3 SWAP2 POP POP JUMP JUMPDEST PUSH1 0x0 DUP2 SWAP1 POP SWAP2 SWAP1 POP JUMP JUMPDEST PUSH2 0xDCE DUP2 PUSH2 0xDBB JUMP JUMPDEST DUP3 MSTORE POP POP JUMP JUMPDEST PUSH1 0x0 PUSH1 0x20 DUP3 ADD SWAP1 POP PUSH2 0xDE9 PUSH1 0x0 DUP4 ADD DUP5 PUSH2 0xDC5 JUMP JUMPDEST SWAP3 SWAP2 POP POP JUMP JUMPDEST PUSH1 0x0 PUSH1 0x40 MLOAD SWAP1 POP SWAP1 JUMP JUMPDEST PUSH1 0x0 DUP1 REVERT JUMPDEST PUSH1 0x0 DUP1 REVERT JUMPDEST PUSH1 0x0 DUP1 REVERT JUMPDEST PUSH1 0x0 DUP1 REVERT JUMPDEST PUSH32 0x4E487B7100000000000000000000000000000000000000000000000000000000 PUSH1 0x0 MSTORE PUSH1 0x41 PUSH1 0x4 MSTORE PUSH1 0x24 PUSH1 0x0 REVERT JUMPDEST PUSH2 0xE45 DUP3 PUSH2 0xD4F JUMP JUMPDEST DUP2 ADD DUP2 DUP2 LT PUSH8 0xFFFFFFFFFFFFFFFF DUP3 GT OR ISZERO PUSH2 0xE64 JUMPI PUSH2 0xE63 PUSH2 0xE0D JUMP JUMPDEST JUMPDEST DUP1 PUSH1 0x40 MSTORE POP POP POP JUMP JUMPDEST PUSH1 0x0 PUSH2 0xE77 PUSH2 0xDEF JUMP JUMPDEST SWAP1 POP PUSH2 0xE83 DUP3 DUP3 PUSH2 0xE3C JUMP JUMPDEST SWAP2 SWAP1 POP JUMP JUMPDEST PUSH1 0x0 PUSH8 0xFFFFFFFFFFFFFFFF DUP3 GT ISZERO PUSH2 0xEA3 JUMPI PUSH2 0xEA2 PUSH2 0xE0D JUMP JUMPDEST JUMPDEST PUSH2 0xEAC DUP3 PUSH2 0xD4F JUMP JUMPDEST SWAP1 POP PUSH1 0x20 DUP2 ADD SWAP1 POP SWAP2 SWAP1 POP JUMP JUMPDEST DUP3 DUP2 DUP4 CALLDATACOPY PUSH1 0x0 DUP4 DUP4 ADD MSTORE POP POP POP JUMP JUMPDEST PUSH1 0x0 PUSH2 0xEDB PUSH2 0xED6 DUP5 PUSH2 0xE88 JUMP JUMPDEST PUSH2 0xE6D JUMP JUMPDEST SWAP1 POP DUP3 DUP2 MSTORE PUSH1 0x20 DUP2 ADD DUP5 DUP5 DUP5 ADD GT ISZERO PUSH2 0xEF7 JUMPI PUSH2 0xEF6 PUSH2 0xE08 JUMP JUMPDEST JUMPDEST PUSH2 0xF02 DUP5 DUP3 DUP6 PUSH2 0xEB9 JUMP JUMPDEST POP SWAP4 SWAP3 POP POP POP JUMP JUMPDEST PUSH1 0x0 DUP3 PUSH1 0x1F DUP4 ADD SLT PUSH2 0xF1F JUMPI PUSH2 0xF1E PUSH2 0xE03 JUMP JUMPDEST JUMPDEST DUP2 CALLDATALOAD PUSH2 0xF2F DUP5 DUP3 PUSH1 0x20 DUP7 ADD PUSH2 0xEC8 JUMP JUMPDEST SWAP2 POP POP SWAP3 SWAP2 POP POP JUMP JUMPDEST PUSH1 0x0 PUSH1 0x20 DUP3 DUP5 SUB SLT ISZERO PUSH2 0xF4E JUMPI PUSH2 0xF4D PUSH2 0xDF9 JUMP JUMPDEST JUMPDEST PUSH1 0x0 DUP3 ADD CALLDATALOAD PUSH8 0xFFFFFFFFFFFFFFFF DUP2 GT ISZERO PUSH2 0xF6C JUMPI PUSH2 0xF6B PUSH2 0xDFE JUMP JUMPDEST JUMPDEST PUSH2 0xF78 DUP5 DUP3 DUP6 ADD PUSH2 0xF0A JUMP JUMPDEST SWAP2 POP POP SWAP3 SWAP2 POP POP JUMP JUMPDEST PUSH1 0x0 PUSH20 0xFFFFFFFFFFFFFFFFFFFFFFFFFFFFFFFFFFFFFFFF DUP3 AND SWAP1 POP SWAP2 SWAP1 POP JUMP JUMPDEST PUSH1 0x0 PUSH2 0xFAC DUP3 PUSH2 0xF81 JUMP JUMPDEST SWAP1 POP SWAP2 SWAP1 POP JUMP JUMPDEST PUSH2 0xFBC DUP2 PUSH2 0xFA1 JUMP JUMPDEST DUP2 EQ PUSH2 0xFC7 JUMPI PUSH1 0x0 DUP1 REVERT JUMPDEST POP JUMP JUMPDEST PUSH1 0x0 DUP2 CALLDATALOAD SWAP1 POP PUSH2 0xFD9 DUP2 PUSH2 0xFB3 JUMP JUMPDEST SWAP3 SWAP2 POP POP JUMP JUMPDEST PUSH2 0xFE8 DUP2 PUSH2 0xDBB JUMP JUMPDEST DUP2 EQ PUSH2 0xFF3 JUMPI PUSH1 0x0 DUP1 REVERT JUMPDEST POP JUMP JUMPDEST PUSH1 0x0 DUP2 CALLDATALOAD SWAP1 POP PUSH2 0x1005 DUP2 PUSH2 0xFDF JUMP JUMPDEST SWAP3 SWAP2 POP POP JUMP JUMPDEST PUSH1 0x0 DUP1 PUSH1 0x0 PUSH1 0x60 DUP5 DUP7 SUB SLT ISZERO PUSH2 0x1024 JUMPI PUSH2 0x1023 PUSH2 0xDF9 JUMP JUMPDEST JUMPDEST PUSH1 0x0 PUSH2 0x1032 DUP7 DUP3 DUP8 ADD PUSH2 0xFCA JUMP JUMPDEST SWAP4 POP POP PUSH1 0x20 PUSH2 0x1043 DUP7 DUP3 DUP8 ADD PUSH2 0xFF6 JUMP JUMPDEST SWAP3 POP POP PUSH1 0x40 DUP5 ADD CALLDATALOAD PUSH8 0xFFFFFFFFFFFFFFFF DUP2 GT ISZERO PUSH2 0x1064 JUMPI PUSH2 0x1063 PUSH2 0xDFE JUMP JUMPDEST JUMPDEST PUSH2 0x1070 DUP7 DUP3 DUP8 ADD PUSH2 0xF0A JUMP JUMPDEST SWAP2 POP POP SWAP3 POP SWAP3 POP SWAP3 JUMP JUMPDEST PUSH1 0x0 PUSH1 0x20 DUP3 DUP5 SUB SLT ISZERO PUSH2 0x1090 JUMPI PUSH2 0x108F PUSH2 0xDF9 JUMP JUMPDEST JUMPDEST PUSH1 0x0 PUSH2 0x109E DUP5 DUP3 DUP6 ADD PUSH2 0xFCA JUMP JUMPDEST SWAP2 POP POP SWAP3 SWAP2 POP POP JUMP JUMPDEST PUSH2 0x10B0 DUP2 PUSH2 0xFA1 JUMP JUMPDEST DUP3 MSTORE POP POP JUMP JUMPDEST PUSH1 0x0 PUSH1 0x20 DUP3 ADD SWAP1 POP PUSH2 0x10CB PUSH1 0x0 DUP4 ADD DUP5 PUSH2 0x10A7 JUMP JUMPDEST SWAP3 SWAP2 POP POP JUMP JUMPDEST PUSH1 0x0 DUP2 MLOAD SWAP1 POP SWAP2 SWAP1 POP JUMP JUMPDEST PUSH1 0x0 DUP3 DUP3 MSTORE PUSH1 0x20 DUP3 ADD SWAP1 POP SWAP3 SWAP2 POP POP JUMP JUMPDEST PUSH1 0x0 DUP2 SWAP1 POP PUSH1 0x20 DUP3 ADD SWAP1 POP SWAP2 SWAP1 POP JUMP JUMPDEST PUSH2 0x1106 DUP2 PUSH2 0xFA1 JUMP JUMPDEST DUP3 MSTORE POP POP JUMP JUMPDEST PUSH1 0x0 DUP3 DUP3 MSTORE PUSH1 0x20 DUP3 ADD SWAP1 POP SWAP3 SWAP2 POP POP JUMP JUMPDEST PUSH1 0x0 PUSH2 0x1128 DUP3 PUSH2 0xD09 JUMP JUMPDEST PUSH2 0x1132 DUP2 DUP6 PUSH2 0x110C JUMP JUMPDEST SWAP4 POP PUSH2 0x1142 DUP2 DUP6 PUSH1 0x20 DUP7 ADD PUSH2 0xD25 JUMP JUMPDEST PUSH2 0x114B DUP2 PUSH2 0xD4F JUMP JUMPDEST DUP5 ADD SWAP2 POP POP SWAP3 SWAP2 POP POP JUMP JUMPDEST PUSH2 0x115F DUP2 PUSH2 0xDBB JUMP JUMPDEST DUP3 MSTORE POP POP JUMP JUMPDEST PUSH1 0x0 PUSH1 0xA0 DUP4 ADD PUSH1 0x0 DUP4 ADD MLOAD PUSH2 0x117D PUSH1 0x0 DUP7 ADD DUP3 PUSH2 0x10FD JUMP JUMPDEST POP PUSH1 0x20 DUP4 ADD MLOAD DUP5 DUP3 SUB PUSH1 0x20 DUP7 ADD MSTORE PUSH2 0x1195 DUP3 DUP3 PUSH2 0x111D JUMP JUMPDEST SWAP2 POP POP PUSH1 0x40 DUP4 ADD MLOAD DUP5 DUP3 SUB PUSH1 0x40 DUP7 ADD MSTORE PUSH2 0x11AF DUP3 DUP3 PUSH2 0x111D JUMP JUMPDEST SWAP2 POP POP PUSH1 0x60 DUP4 ADD MLOAD PUSH2 0x11C4 PUSH1 0x60 DUP7 ADD DUP3 PUSH2 0x1156 JUMP JUMPDEST POP PUSH1 0x80 DUP4 ADD MLOAD PUSH2 0x11D7 PUSH1 0x80 DUP7 ADD DUP3 PUSH2 0x1156 JUMP JUMPDEST POP DUP1 SWAP2 POP POP SWAP3 SWAP2 POP POP JUMP JUMPDEST PUSH1 0x0 PUSH2 0x11EE DUP4 DUP4 PUSH2 0x1165 JUMP JUMPDEST SWAP1 POP SWAP3 SWAP2 POP POP JUMP JUMPDEST PUSH1 0x0 PUSH1 0x20 DUP3 ADD SWAP1 POP SWAP2 SWAP1 POP JUMP JUMPDEST PUSH1 0x0 PUSH2 0x120E DUP3 PUSH2 0x10D1 JUMP JUMPDEST PUSH2 0x1218 DUP2 DUP6 PUSH2 0x10DC JUMP JUMPDEST SWAP4 POP DUP4 PUSH1 0x20 DUP3 MUL DUP6 ADD PUSH2 0x122A DUP6 PUSH2 0x10ED JUMP JUMPDEST DUP1 PUSH1 0x0 JUMPDEST DUP6 DUP2 LT ISZERO PUSH2 0x1266 JUMPI DUP5 DUP5 SUB DUP10 MSTORE DUP2 MLOAD PUSH2 0x1247 DUP6 DUP3 PUSH2 0x11E2 JUMP JUMPDEST SWAP5 POP PUSH2 0x1252 DUP4 PUSH2 0x11F6 JUMP JUMPDEST SWAP3 POP PUSH1 0x20 DUP11 ADD SWAP10 POP POP PUSH1 0x1 DUP2 ADD SWAP1 POP PUSH2 0x122E JUMP JUMPDEST POP DUP3 SWAP8 POP DUP8 SWAP6 POP POP POP POP POP POP SWAP3 SWAP2 POP POP JUMP JUMPDEST PUSH1 0x0 PUSH1 0x20 DUP3 ADD SWAP1 POP DUP2 DUP2 SUB PUSH1 0x0 DUP4 ADD MSTORE PUSH2 0x1292 DUP2 DUP5 PUSH2 0x1203 JUMP JUMPDEST SWAP1 POP SWAP3 SWAP2 POP POP JUMP JUMPDEST PUSH1 0x0 DUP1 PUSH1 0x0 PUSH1 0x60 DUP5 DUP7 SUB SLT ISZERO PUSH2 0x12B3 JUMPI PUSH2 0x12B2 PUSH2 0xDF9 JUMP JUMPDEST JUMPDEST PUSH1 0x0 PUSH2 0x12C1 DUP7 DUP3 DUP8 ADD PUSH2 0xFCA JUMP JUMPDEST SWAP4 POP POP PUSH1 0x20 DUP5 ADD CALLDATALOAD PUSH8 0xFFFFFFFFFFFFFFFF DUP2 GT ISZERO PUSH2 0x12E2 JUMPI PUSH2 0x12E1 PUSH2 0xDFE JUMP JUMPDEST JUMPDEST PUSH2 0x12EE DUP7 DUP3 DUP8 ADD PUSH2 0xF0A JUMP JUMPDEST SWAP3 POP POP PUSH1 0x40 PUSH2 0x12FF DUP7 DUP3 DUP8 ADD PUSH2 0xFF6 JUMP JUMPDEST SWAP2 POP POP SWAP3 POP SWAP3 POP SWAP3 JUMP JUMPDEST PUSH1 0x0 PUSH1 0x20 DUP3 DUP5 SUB SLT ISZERO PUSH2 0x131F JUMPI PUSH2 0x131E PUSH2 0xDF9 JUMP JUMPDEST JUMPDEST PUSH1 0x0 PUSH2 0x132D DUP5 DUP3 DUP6 ADD PUSH2 0xFF6 JUMP JUMPDEST SWAP2 POP POP SWAP3 SWAP2 POP POP JUMP JUMPDEST PUSH1 0x0 PUSH1 0xA0 DUP3 ADD SWAP1 POP PUSH2 0x134B PUSH1 0x0 DUP4 ADD DUP9 PUSH2 0x10A7 JUMP JUMPDEST DUP2 DUP2 SUB PUSH1 0x20 DUP4 ADD MSTORE PUSH2 0x135D DUP2 DUP8 PUSH2 0xD60 JUMP JUMPDEST SWAP1 POP DUP2 DUP2 SUB PUSH1 0x40 DUP4 ADD MSTORE PUSH2 0x1371 DUP2 DUP7 PUSH2 0xD60 JUMP JUMPDEST SWAP1 POP PUSH2 0x1380 PUSH1 0x60 DUP4 ADD DUP6 PUSH2 0xDC5 JUMP JUMPDEST PUSH2 0x138D PUSH1 0x80 DUP4 ADD DUP5 PUSH2 0xDC5 JUMP JUMPDEST SWAP7 SWAP6 POP POP POP POP POP POP JUMP JUMPDEST PUSH32 0x4E487B7100000000000000000000000000000000000000000000000000000000 PUSH1 0x0 MSTORE PUSH1 0x22 PUSH1 0x4 MSTORE PUSH1 0x24 PUSH1 0x0 REVERT JUMPDEST PUSH1 0x0 PUSH1 0x2 DUP3 DIV SWAP1 POP PUSH1 0x1 DUP3 AND DUP1 PUSH2 0x13DE JUMPI PUSH1 0x7F DUP3 AND SWAP2 POP JUMPDEST PUSH1 0x20 DUP3 LT DUP2 SUB PUSH2 0x13F1 JUMPI PUSH2 0x13F0 PUSH2 0x1397 JUMP JUMPDEST JUMPDEST POP SWAP2 SWAP1 POP JUMP JUMPDEST PUSH1 0x0 DUP2 SWAP1 POP DUP2 PUSH1 0x0 MSTORE PUSH1 0x20 PUSH1 0x0 KECCAK256 SWAP1 POP SWAP2 SWAP1 POP JUMP JUMPDEST PUSH1 0x0 PUSH1 0x20 PUSH1 0x1F DUP4 ADD DIV SWAP1 POP SWAP2 SWAP1 POP JUMP JUMPDEST PUSH1 0x0 DUP3 DUP3 SHL SWAP1 POP SWAP3 SWAP2 POP POP JUMP JUMPDEST PUSH1 0x0 PUSH1 0x8 DUP4 MUL PUSH2 0x1459 PUSH32 0xFFFFFFFFFFFFFFFFFFFFFFFFFFFFFFFFFFFFFFFFFFFFFFFFFFFFFFFFFFFFFFFF DUP3 PUSH2 0x141C JUMP JUMPDEST PUSH2 0x1463 DUP7 DUP4 PUSH2 0x141C JUMP JUMPDEST SWAP6 POP DUP1 NOT DUP5 AND SWAP4 POP DUP1 DUP7 AND DUP5 OR SWAP3 POP POP POP SWAP4 SWAP3 POP POP POP JUMP JUMPDEST PUSH1 0x0 DUP2 SWAP1 POP SWAP2 SWAP1 POP JUMP JUMPDEST PUSH1 0x0 PUSH2 0x14A0 PUSH2 0x149B PUSH2 0x1496 DUP5 PUSH2 0xDBB JUMP JUMPDEST PUSH2 0x147B JUMP JUMPDEST PUSH2 0xDBB JUMP JUMPDEST SWAP1 POP SWAP2 SWAP1 POP JUMP JUMPDEST PUSH1 0x0 DUP2 SWAP1 POP SWAP2 SWAP1 POP JUMP JUMPDEST PUSH2 0x14BA DUP4 PUSH2 0x1485 JUMP JUMPDEST PUSH2 0x14CE PUSH2 0x14C6 DUP3 PUSH2 0x14A7 JUMP JUMPDEST DUP5 DUP5 SLOAD PUSH2 0x1429 JUMP JUMPDEST DUP3 SSTORE POP POP POP POP JUMP JUMPDEST PUSH1 0x0 SWAP1 JUMP JUMPDEST PUSH2 0x14E3 PUSH2 0x14D6 JUMP JUMPDEST PUSH2 0x14EE DUP2 DUP5 DUP5 PUSH2 0x14B1 JUMP JUMPDEST POP POP POP JUMP JUMPDEST JUMPDEST DUP2 DUP2 LT ISZERO PUSH2 0x1512 JUMPI PUSH2 0x1507 PUSH1 0x0 DUP3 PUSH2 0x14DB JUMP JUMPDEST PUSH1 0x1 DUP2 ADD SWAP1 POP PUSH2 0x14F4 JUMP JUMPDEST POP POP JUMP JUMPDEST PUSH1 0x1F DUP3 GT ISZERO PUSH2 0x1557 JUMPI PUSH2 0x1528 DUP2 PUSH2 0x13F7 JUMP JUMPDEST PUSH2 0x1531 DUP5 PUSH2 0x140C JUMP JUMPDEST DUP2 ADD PUSH1 0x20 DUP6 LT ISZERO PUSH2 0x1540 JUMPI DUP2 SWAP1 POP JUMPDEST PUSH2 0x1554 PUSH2 0x154C DUP6 PUSH2 0x140C JUMP JUMPDEST DUP4 ADD DUP3 PUSH2 0x14F3 JUMP JUMPDEST POP POP JUMPDEST POP POP POP JUMP JUMPDEST PUSH1 0x0 DUP3 DUP3 SHR SWAP1 POP SWAP3 SWAP2 POP POP JUMP JUMPDEST PUSH1 0x0 PUSH2 0x157A PUSH1 0x0 NOT DUP5 PUSH1 0x8 MUL PUSH2 0x155C JUMP JUMPDEST NOT DUP1 DUP4 AND SWAP2 POP POP SWAP3 SWAP2 POP POP JUMP JUMPDEST PUSH1 0x0 PUSH2 0x1593 DUP4 DUP4 PUSH2 0x1569 JUMP JUMPDEST SWAP2 POP DUP3 PUSH1 0x2 MUL DUP3 OR SWAP1 POP SWAP3 SWAP2 POP POP JUMP JUMPDEST PUSH2 0x15AC DUP3 PUSH2 0xD09 JUMP JUMPDEST PUSH8 0xFFFFFFFFFFFFFFFF DUP2 GT ISZERO PUSH2 0x15C5 JUMPI PUSH2 0x15C4 PUSH2 0xE0D JUMP JUMPDEST JUMPDEST PUSH2 0x15CF DUP3 SLOAD PUSH2 0x13C6 JUMP JUMPDEST PUSH2 0x15DA DUP3 DUP3 DUP6 PUSH2 0x1516 JUMP JUMPDEST PUSH1 0x0 PUSH1 0x20 SWAP1 POP PUSH1 0x1F DUP4 GT PUSH1 0x1 DUP2 EQ PUSH2 0x160D JUMPI PUSH1 0x0 DUP5 ISZERO PUSH2 0x15FB JUMPI DUP3 DUP8 ADD MLOAD SWAP1 POP JUMPDEST PUSH2 0x1605 DUP6 DUP3 PUSH2 0x1587 JUMP JUMPDEST DUP7 SSTORE POP PUSH2 0x166D JUMP JUMPDEST PUSH1 0x1F NOT DUP5 AND PUSH2 0x161B DUP7 PUSH2 0x13F7 JUMP JUMPDEST PUSH1 0x0 JUMPDEST DUP3 DUP2 LT ISZERO PUSH2 0x1643 JUMPI DUP5 DUP10 ADD MLOAD DUP3 SSTORE PUSH1 0x1 DUP3 ADD SWAP2 POP PUSH1 0x20 DUP6 ADD SWAP5 POP PUSH1 0x20 DUP2 ADD SWAP1 POP PUSH2 0x161E JUMP JUMPDEST DUP7 DUP4 LT ISZERO PUSH2 0x1660 JUMPI DUP5 DUP10 ADD MLOAD PUSH2 0x165C PUSH1 0x1F DUP10 AND DUP3 PUSH2 0x1569 JUMP JUMPDEST DUP4 SSTORE POP JUMPDEST PUSH1 0x1 PUSH1 0x2 DUP9 MUL ADD DUP9 SSTORE POP POP POP JUMPDEST POP POP POP POP POP POP JUMP JUMPDEST PUSH1 0x0 PUSH1 0x40 DUP3 ADD SWAP1 POP DUP2 DUP2 SUB PUSH1 0x0 DUP4 ADD MSTORE PUSH2 0x168F DUP2 DUP6 PUSH2 0xD60 JUMP JUMPDEST SWAP1 POP DUP2 DUP2 SUB PUSH1 0x20 DUP4 ADD MSTORE PUSH2 0x16A3 DUP2 DUP5 PUSH2 0xD60 JUMP JUMPDEST SWAP1 POP SWAP4 SWAP3 POP POP POP JUMP JUMPDEST PUSH32 0x4F6E6C7920746865206F776E65722063616E206C6F672061646D696E206D6573 PUSH1 0x0 DUP3 ADD MSTORE PUSH32 0x7361676573000000000000000000000000000000000000000000000000000000 PUSH1 0x20 DUP3 ADD MSTORE POP JUMP JUMPDEST PUSH1 0x0 PUSH2 0x1708 PUSH1 0x25 DUP4 PUSH2 0xD14 JUMP JUMPDEST SWAP2 POP PUSH2 0x1713 DUP3 PUSH2 0x16AC JUMP JUMPDEST PUSH1 0x40 DUP3 ADD SWAP1 POP SWAP2 SWAP1 POP JUMP JUMPDEST PUSH1 0x0 PUSH1 0x20 DUP3 ADD SWAP1 POP DUP2 DUP2 SUB PUSH1 0x0 DUP4 ADD MSTORE PUSH2 0x1737 DUP2 PUSH2 0x16FB JUMP JUMPDEST SWAP1 POP SWAP2 SWAP1 POP JUMP JUMPDEST PUSH1 0x0 PUSH1 0x40 DUP3 ADD SWAP1 POP DUP2 DUP2 SUB PUSH1 0x0 DUP4 ADD MSTORE PUSH2 0x1758 DUP2 DUP6 PUSH2 0xD60 JUMP JUMPDEST SWAP1 POP PUSH2 0x1767 PUSH1 0x20 DUP4 ADD DUP5 PUSH2 0xDC5 JUMP JUMPDEST SWAP4 SWAP3 POP POP POP JUMP INVALID LOG2 PUSH5 0x6970667358 0x22 SLT KECCAK256 0xBA 0x2A CALLER 0xB8 0xCF 0xBF PUSH15 0xE20B8B08D333C026F58A3DE53D3FB1 0xB4 CHAINID PUSH6 0xBB360D7A12B5 DUP4 PUSH5 0x736F6C6343 STOP ADDMOD SHL STOP CALLER "},"methodIdentifiers":{"CourseAdded(string)":"7b8e36ec","CourseBought(string)":"26c11eb7","balanceOf(address)":"70a08231","fetchLogs()":"9b322de8","logAdminMessage(string)":"6588930c","logProductPurchase(address,string,uint256)":"d90cd37e","logs(uint256)":"e79899bd","message()":"e21f37ce","name()":"06fdde03","owner()":"8da5cb5b","symbol()":"95d89b41","totalSupply()":"18160ddd","transfer(address,uint256,string)":"56b8c724"}}}}}