{
  "_format": "hh-sol-artifact-1",
  "contractName": "Token",
  "sourceName": "contracts/Token.sol",
  "abi": [
    {
      "anonymous": false,
      "inputs": [
        {
          "indexed": false,
          "internalType": "string",
          "name": "message",
          "type": "string"
        }
      ],
      "name": "AdminMessage",
      "type": "event"
    },
    {
      "anonymous": false,
      "inputs": [
        {
          "indexed": false,
          "internalType": "string",
          "name": "oldMessage",
          "type": "string"
        },
        {
          "indexed": false,
          "internalType": "string",
          "name": "newMessage",
          "type": "string"
        }
      ],
      "name": "MessageUpdated",
      "type": "event"
    },
    {
      "anonymous": false,
      "inputs": [
        {
          "indexed": true,
          "internalType": "address",
          "name": "payer",
          "type": "address"
        },
        {
          "indexed": false,
          "internalType": "uint256",
          "name": "amount",
          "type": "uint256"
        },
        {
          "indexed": false,
          "internalType": "string",
          "name": "message",
          "type": "string"
        }
      ],
      "name": "PaymentLogged",
      "type": "event"
    },
    {
      "anonymous": false,
      "inputs": [
        {
          "indexed": true,
          "internalType": "address",
          "name": "from",
          "type": "address"
        },
        {
          "indexed": true,
          "internalType": "address",
          "name": "to",
          "type": "address"
        },
        {
          "indexed": false,
          "internalType": "uint256",
          "name": "amount",
          "type": "uint256"
        }
      ],
      "name": "Transfer",
      "type": "event"
    },
    {
      "inputs": [
        {
          "internalType": "string",
          "name": "_newMessage",
          "type": "string"
        }
      ],
      "name": "CourseAdded",
      "outputs": [],
      "stateMutability": "nonpayable",
      "type": "function"
    },
    {
      "inputs": [
        {
          "internalType": "string",
          "name": "_newMessage",
          "type": "string"
        }
      ],
      "name": "CourseBought",
      "outputs": [],
      "stateMutability": "nonpayable",
      "type": "function"
    },
    {
      "inputs": [
        {
          "internalType": "address",
          "name": "",
          "type": "address"
        }
      ],
      "name": "balanceOf",
      "outputs": [
        {
          "internalType": "uint256",
          "name": "",
          "type": "uint256"
        }
      ],
      "stateMutability": "view",
      "type": "function"
    },
    {
      "inputs": [
        {
          "internalType": "string",
          "name": "_adminMessage",
          "type": "string"
        }
      ],
      "name": "logAdminMessage",
      "outputs": [],
      "stateMutability": "nonpayable",
      "type": "function"
    },
    {
      "inputs": [],
      "name": "message",
      "outputs": [
        {
          "internalType": "string",
          "name": "",
          "type": "string"
        }
      ],
      "stateMutability": "view",
      "type": "function"
    },
    {
      "inputs": [],
      "name": "name",
      "outputs": [
        {
          "internalType": "string",
          "name": "",
          "type": "string"
        }
      ],
      "stateMutability": "view",
      "type": "function"
    },
    {
      "inputs": [],
      "name": "owner",
      "outputs": [
        {
          "internalType": "address",
          "name": "",
          "type": "address"
        }
      ],
      "stateMutability": "view",
      "type": "function"
    },
    {
      "inputs": [],
      "name": "symbol",
      "outputs": [
        {
          "internalType": "string",
          "name": "",
          "type": "string"
        }
      ],
      "stateMutability": "view",
      "type": "function"
    },
    {
      "inputs": [],
      "name": "totalSupply",
      "outputs": [
        {
          "internalType": "uint256",
          "name": "",
          "type": "uint256"
        }
      ],
      "stateMutability": "view",
      "type": "function"
    },
    {
      "inputs": [
        {
          "internalType": "address",
          "name": "_to",
          "type": "address"
        },
        {
          "internalType": "uint256",
          "name": "_amount",
          "type": "uint256"
        },
        {
          "internalType": "string",
          "name": "m",
          "type": "string"
        }
      ],
      "name": "transfer",
      "outputs": [],
      "stateMutability": "nonpayable",
      "type": "function"
    }
  ],
  "bytecode": "0x60806040526040518060400160405280600281526020017f4d790000000000000000000000000000000000000000000000000000000000008152506000908161004891906102f7565b506040518060400160405280600381526020017f4d485400000000000000000000000000000000000000000000000000000000008152506001908161008d91906102f7565b50620f42406002553480156100a157600080fd5b506103c9565b600081519050919050565b7f4e487b7100000000000000000000000000000000000000000000000000000000600052604160045260246000fd5b7f4e487b7100000000000000000000000000000000000000000000000000000000600052602260045260246000fd5b6000600282049050600182168061012857607f821691505b60208210810361013b5761013a6100e1565b5b50919050565b60008190508160005260206000209050919050565b60006020601f8301049050919050565b600082821b905092915050565b6000600883026101a37fffffffffffffffffffffffffffffffffffffffffffffffffffffffffffffffff82610166565b6101ad8683610166565b95508019841693508086168417925050509392505050565b6000819050919050565b6000819050919050565b60006101f46101ef6101ea846101c5565b6101cf565b6101c5565b9050919050565b6000819050919050565b61020e836101d9565b61022261021a826101fb565b848454610173565b825550505050565b600090565b61023761022a565b610242818484610205565b505050565b5b818110156102665761025b60008261022f565b600181019050610248565b5050565b601f8211156102ab5761027c81610141565b61028584610156565b81016020851015610294578190505b6102a86102a085610156565b830182610247565b50505b505050565b600082821c905092915050565b60006102ce600019846008026102b0565b1980831691505092915050565b60006102e783836102bd565b9150826002028217905092915050565b610300826100a7565b67ffffffffffffffff811115610319576103186100b2565b5b6103238254610110565b61032e82828561026a565b600060209050601f831160018114610361576000841561034f578287015190505b61035985826102db565b8655506103c1565b601f19841661036f86610141565b60005b8281101561039757848901518255600182019150602085019450602081019050610372565b868310156103b457848901516103b0601f8916826102bd565b8355505b6001600288020188555050505b505050505050565b610f31806103d86000396000f3fe608060405234801561001057600080fd5b506004361061009e5760003560e01c806370a082311161006657806370a08231146101335780637b8e36ec146101635780638da5cb5b1461017f57806395d89b411461019d578063e21f37ce146101bb5761009e565b806306fdde03146100a357806318160ddd146100c157806326c11eb7146100df57806356b8c724146100fb5780636588930c14610117575b600080fd5b6100ab6101d9565b6040516100b8919061081c565b60405180910390f35b6100c9610267565b6040516100d69190610857565b60405180910390f35b6100f960048036038101906100f491906109bb565b61026d565b005b61011560048036038101906101109190610a8e565b610349565b005b610131600480360381019061012c91906109bb565b61048c565b005b61014d60048036038101906101489190610afd565b610556565b60405161015a9190610857565b60405180910390f35b61017d600480360381019061017891906109bb565b61056e565b005b61018761064a565b6040516101949190610b39565b60405180910390f35b6101a5610670565b6040516101b2919061081c565b60405180910390f35b6101c36106fe565b6040516101d0919061081c565b60405180910390f35b600080546101e690610b83565b80601f016020809104026020016040519081016040528092919081815260200182805461021290610b83565b801561025f5780601f106102345761010080835404028352916020019161025f565b820191906000526020600020905b81548152906001019060200180831161024257829003601f168201915b505050505081565b60025481565b60006005805461027c90610b83565b80601f01602080910402602001604051908101604052809291908181526020018280546102a890610b83565b80156102f55780601f106102ca576101008083540402835291602001916102f5565b820191906000526020600020905b8154815290600101906020018083116102d857829003601f168201915b50505050509050816005908161030b9190610d60565b507f5b4717af615de779c9c12885d202645882ad93995957a99a4a1a145b3ccdbc10818360405161033d929190610e32565b60405180910390a15050565b60006005805461035890610b83565b80601f016020809104026020016040519081016040528092919081815260200182805461038490610b83565b80156103d15780601f106103a6576101008083540402835291602001916103d1565b820191906000526020600020905b8154815290600101906020018083116103b457829003601f168201915b5050505050905081600590816103e79190610d60565b507f5b4717af615de779c9c12885d202645882ad93995957a99a4a1a145b3ccdbc108183604051610419929190610e32565b60405180910390a18373ffffffffffffffffffffffffffffffffffffffff163373ffffffffffffffffffffffffffffffffffffffff167fddf252ad1be2c89b69c2b068fc378daa952ba7f163c4a11628f55a4df523b3ef8560405161047e9190610857565b60405180910390a350505050565b600360009054906101000a900473ffffffffffffffffffffffffffffffffffffffff1673ffffffffffffffffffffffffffffffffffffffff163373ffffffffffffffffffffffffffffffffffffffff161461051c576040517f08c379a000000000000000000000000000000000000000000000000000000000815260040161051390610edb565b60405180910390fd5b7f27727882bd190f5a2f84e21914b553731940ed0fe50f31444893a208319c2c208160405161054b919061081c565b60405180910390a150565b60046020528060005260406000206000915090505481565b60006005805461057d90610b83565b80601f01602080910402602001604051908101604052809291908181526020018280546105a990610b83565b80156105f65780601f106105cb576101008083540402835291602001916105f6565b820191906000526020600020905b8154815290600101906020018083116105d957829003601f168201915b50505050509050816005908161060c9190610d60565b507f5b4717af615de779c9c12885d202645882ad93995957a99a4a1a145b3ccdbc10818360405161063e929190610e32565b60405180910390a15050565b600360009054906101000a900473ffffffffffffffffffffffffffffffffffffffff1681565b6001805461067d90610b83565b80601f01602080910402602001604051908101604052809291908181526020018280546106a990610b83565b80156106f65780601f106106cb576101008083540402835291602001916106f6565b820191906000526020600020905b8154815290600101906020018083116106d957829003601f168201915b505050505081565b6005805461070b90610b83565b80601f016020809104026020016040519081016040528092919081815260200182805461073790610b83565b80156107845780601f1061075957610100808354040283529160200191610784565b820191906000526020600020905b81548152906001019060200180831161076757829003601f168201915b505050505081565b600081519050919050565b600082825260208201905092915050565b60005b838110156107c65780820151818401526020810190506107ab565b60008484015250505050565b6000601f19601f8301169050919050565b60006107ee8261078c565b6107f88185610797565b93506108088185602086016107a8565b610811816107d2565b840191505092915050565b6000602082019050818103600083015261083681846107e3565b905092915050565b6000819050919050565b6108518161083e565b82525050565b600060208201905061086c6000830184610848565b92915050565b6000604051905090565b600080fd5b600080fd5b600080fd5b600080fd5b7f4e487b7100000000000000000000000000000000000000000000000000000000600052604160045260246000fd5b6108c8826107d2565b810181811067ffffffffffffffff821117156108e7576108e6610890565b5b80604052505050565b60006108fa610872565b905061090682826108bf565b919050565b600067ffffffffffffffff82111561092657610925610890565b5b61092f826107d2565b9050602081019050919050565b82818337600083830152505050565b600061095e6109598461090b565b6108f0565b90508281526020810184848401111561097a5761097961088b565b5b61098584828561093c565b509392505050565b600082601f8301126109a2576109a1610886565b5b81356109b284826020860161094b565b91505092915050565b6000602082840312156109d1576109d061087c565b5b600082013567ffffffffffffffff8111156109ef576109ee610881565b5b6109fb8482850161098d565b91505092915050565b600073ffffffffffffffffffffffffffffffffffffffff82169050919050565b6000610a2f82610a04565b9050919050565b610a3f81610a24565b8114610a4a57600080fd5b50565b600081359050610a5c81610a36565b92915050565b610a6b8161083e565b8114610a7657600080fd5b50565b600081359050610a8881610a62565b92915050565b600080600060608486031215610aa757610aa661087c565b5b6000610ab586828701610a4d565b9350506020610ac686828701610a79565b925050604084013567ffffffffffffffff811115610ae757610ae6610881565b5b610af38682870161098d565b9150509250925092565b600060208284031215610b1357610b1261087c565b5b6000610b2184828501610a4d565b91505092915050565b610b3381610a24565b82525050565b6000602082019050610b4e6000830184610b2a565b92915050565b7f4e487b7100000000000000000000000000000000000000000000000000000000600052602260045260246000fd5b60006002820490506001821680610b9b57607f821691505b602082108103610bae57610bad610b54565b5b50919050565b60008190508160005260206000209050919050565b60006020601f8301049050919050565b600082821b905092915050565b600060088302610c167fffffffffffffffffffffffffffffffffffffffffffffffffffffffffffffffff82610bd9565b610c208683610bd9565b95508019841693508086168417925050509392505050565b6000819050919050565b6000610c5d610c58610c538461083e565b610c38565b61083e565b9050919050565b6000819050919050565b610c7783610c42565b610c8b610c8382610c64565b848454610be6565b825550505050565b600090565b610ca0610c93565b610cab818484610c6e565b505050565b5b81811015610ccf57610cc4600082610c98565b600181019050610cb1565b5050565b601f821115610d1457610ce581610bb4565b610cee84610bc9565b81016020851015610cfd578190505b610d11610d0985610bc9565b830182610cb0565b50505b505050565b600082821c905092915050565b6000610d3760001984600802610d19565b1980831691505092915050565b6000610d508383610d26565b9150826002028217905092915050565b610d698261078c565b67ffffffffffffffff811115610d8257610d81610890565b5b610d8c8254610b83565b610d97828285610cd3565b600060209050601f831160018114610dca5760008415610db8578287015190505b610dc28582610d44565b865550610e2a565b601f198416610dd886610bb4565b60005b82811015610e0057848901518255600182019150602085019450602081019050610ddb565b86831015610e1d5784890151610e19601f891682610d26565b8355505b6001600288020188555050505b505050505050565b60006040820190508181036000830152610e4c81856107e3565b90508181036020830152610e6081846107e3565b90509392505050565b7f4f6e6c7920746865206f776e65722063616e206c6f672061646d696e206d657360008201527f7361676573000000000000000000000000000000000000000000000000000000602082015250565b6000610ec5602583610797565b9150610ed082610e69565b604082019050919050565b60006020820190508181036000830152610ef481610eb8565b905091905056fea2646970667358221220cb3ea51a3a99eafc3e8fd438516209303cac2231381df15bc0e9ac13e5d71a4764736f6c634300081b0033",
  "linkReferences": {},
  "deployedLinkReferences": {}
}