{
  "_format": "hh-sol-artifact-1",
  "contractName": "Token",
  "sourceName": "contracts/Token.sol",
  "abi": [
    {
      "anonymous": false,
      "inputs": [
        {
          "indexed": false,
          "internalType": "string",
          "name": "message",
          "type": "string"
        }
      ],
      "name": "AdminMessage",
      "type": "event"
    },
    {
      "anonymous": false,
      "inputs": [
        {
          "indexed": false,
          "internalType": "string",
          "name": "oldMessage",
          "type": "string"
        },
        {
          "indexed": false,
          "internalType": "string",
          "name": "newMessage",
          "type": "string"
        }
      ],
      "name": "MessageUpdated",
      "type": "event"
    },
    {
      "anonymous": false,
      "inputs": [
        {
          "indexed": true,
          "internalType": "address",
          "name": "payer",
          "type": "address"
        },
        {
          "indexed": false,
          "internalType": "uint256",
          "name": "amount",
          "type": "uint256"
        },
        {
          "indexed": false,
          "internalType": "string",
          "name": "message",
          "type": "string"
        }
      ],
      "name": "PaymentLogged",
      "type": "event"
    },
    {
      "anonymous": false,
      "inputs": [
        {
          "indexed": true,
          "internalType": "address",
          "name": "user",
          "type": "address"
        },
        {
          "indexed": false,
          "internalType": "string",
          "name": "productName",
          "type": "string"
        },
        {
          "indexed": false,
          "internalType": "uint256",
          "name": "productPrice",
          "type": "uint256"
        }
      ],
      "name": "ProductBought",
      "type": "event"
    },
    {
      "anonymous": false,
      "inputs": [
        {
          "indexed": true,
          "internalType": "address",
          "name": "from",
          "type": "address"
        },
        {
          "indexed": true,
          "internalType": "address",
          "name": "to",
          "type": "address"
        },
        {
          "indexed": false,
          "internalType": "uint256",
          "name": "amount",
          "type": "uint256"
        }
      ],
      "name": "Transfer",
      "type": "event"
    },
    {
      "inputs": [
        {
          "internalType": "string",
          "name": "_newMessage",
          "type": "string"
        }
      ],
      "name": "CourseAdded",
      "outputs": [],
      "stateMutability": "nonpayable",
      "type": "function"
    },
    {
      "inputs": [
        {
          "internalType": "string",
          "name": "_newMessage",
          "type": "string"
        }
      ],
      "name": "CourseBought",
      "outputs": [],
      "stateMutability": "nonpayable",
      "type": "function"
    },
    {
      "inputs": [
        {
          "internalType": "address",
          "name": "",
          "type": "address"
        }
      ],
      "name": "balanceOf",
      "outputs": [
        {
          "internalType": "uint256",
          "name": "",
          "type": "uint256"
        }
      ],
      "stateMutability": "view",
      "type": "function"
    },
    {
      "inputs": [],
      "name": "fetchLogs",
      "outputs": [
        {
          "components": [
            {
              "internalType": "address",
              "name": "user",
              "type": "address"
            },
            {
              "internalType": "string",
              "name": "action",
              "type": "string"
            },
            {
              "internalType": "string",
              "name": "productName",
              "type": "string"
            },
            {
              "internalType": "uint256",
              "name": "productPrice",
              "type": "uint256"
            },
            {
              "internalType": "uint256",
              "name": "timestamp",
              "type": "uint256"
            }
          ],
          "internalType": "struct Token.Log[]",
          "name": "",
          "type": "tuple[]"
        }
      ],
      "stateMutability": "view",
      "type": "function"
    },
    {
      "inputs": [
        {
          "internalType": "string",
          "name": "_adminMessage",
          "type": "string"
        }
      ],
      "name": "logAdminMessage",
      "outputs": [],
      "stateMutability": "nonpayable",
      "type": "function"
    },
    {
      "inputs": [
        {
          "internalType": "address",
          "name": "user",
          "type": "address"
        },
        {
          "internalType": "string",
          "name": "productName",
          "type": "string"
        },
        {
          "internalType": "uint256",
          "name": "productPrice",
          "type": "uint256"
        }
      ],
      "name": "logProductPurchase",
      "outputs": [],
      "stateMutability": "nonpayable",
      "type": "function"
    },
    {
      "inputs": [
        {
          "internalType": "uint256",
          "name": "",
          "type": "uint256"
        }
      ],
      "name": "logs",
      "outputs": [
        {
          "internalType": "address",
          "name": "user",
          "type": "address"
        },
        {
          "internalType": "string",
          "name": "action",
          "type": "string"
        },
        {
          "internalType": "string",
          "name": "productName",
          "type": "string"
        },
        {
          "internalType": "uint256",
          "name": "productPrice",
          "type": "uint256"
        },
        {
          "internalType": "uint256",
          "name": "timestamp",
          "type": "uint256"
        }
      ],
      "stateMutability": "view",
      "type": "function"
    },
    {
      "inputs": [],
      "name": "message",
      "outputs": [
        {
          "internalType": "string",
          "name": "",
          "type": "string"
        }
      ],
      "stateMutability": "view",
      "type": "function"
    },
    {
      "inputs": [],
      "name": "name",
      "outputs": [
        {
          "internalType": "string",
          "name": "",
          "type": "string"
        }
      ],
      "stateMutability": "view",
      "type": "function"
    },
    {
      "inputs": [],
      "name": "owner",
      "outputs": [
        {
          "internalType": "address",
          "name": "",
          "type": "address"
        }
      ],
      "stateMutability": "view",
      "type": "function"
    },
    {
      "inputs": [],
      "name": "symbol",
      "outputs": [
        {
          "internalType": "string",
          "name": "",
          "type": "string"
        }
      ],
      "stateMutability": "view",
      "type": "function"
    },
    {
      "inputs": [],
      "name": "totalSupply",
      "outputs": [
        {
          "internalType": "uint256",
          "name": "",
          "type": "uint256"
        }
      ],
      "stateMutability": "view",
      "type": "function"
    },
    {
      "inputs": [
        {
          "internalType": "address",
          "name": "_to",
          "type": "address"
        },
        {
          "internalType": "uint256",
          "name": "_amount",
          "type": "uint256"
        },
        {
          "internalType": "string",
          "name": "m",
          "type": "string"
        }
      ],
      "name": "transfer",
      "outputs": [],
      "stateMutability": "nonpayable",
      "type": "function"
    }
  ],
  "bytecode": "0x60806040526040518060400160405280600281526020017f4d790000000000000000000000000000000000000000000000000000000000008152506000908161004891906102f7565b506040518060400160405280600381526020017f4d485400000000000000000000000000000000000000000000000000000000008152506001908161008d91906102f7565b50620f42406002553480156100a157600080fd5b506103c9565b600081519050919050565b7f4e487b7100000000000000000000000000000000000000000000000000000000600052604160045260246000fd5b7f4e487b7100000000000000000000000000000000000000000000000000000000600052602260045260246000fd5b6000600282049050600182168061012857607f821691505b60208210810361013b5761013a6100e1565b5b50919050565b60008190508160005260206000209050919050565b60006020601f8301049050919050565b600082821b905092915050565b6000600883026101a37fffffffffffffffffffffffffffffffffffffffffffffffffffffffffffffffff82610166565b6101ad8683610166565b95508019841693508086168417925050509392505050565b6000819050919050565b6000819050919050565b60006101f46101ef6101ea846101c5565b6101cf565b6101c5565b9050919050565b6000819050919050565b61020e836101d9565b61022261021a826101fb565b848454610173565b825550505050565b600090565b61023761022a565b610242818484610205565b505050565b5b818110156102665761025b60008261022f565b600181019050610248565b5050565b601f8211156102ab5761027c81610141565b61028584610156565b81016020851015610294578190505b6102a86102a085610156565b830182610247565b50505b505050565b600082821c905092915050565b60006102ce600019846008026102b0565b1980831691505092915050565b60006102e783836102bd565b9150826002028217905092915050565b610300826100a7565b67ffffffffffffffff811115610319576103186100b2565b5b6103238254610110565b61032e82828561026a565b600060209050601f831160018114610361576000841561034f578287015190505b61035985826102db565b8655506103c1565b601f19841661036f86610141565b60005b8281101561039757848901518255600182019150602085019450602081019050610372565b868310156103b457848901516103b0601f8916826102bd565b8355505b6001600288020188555050505b505050505050565b6117a4806103d86000396000f3fe608060405234801561001057600080fd5b50600436106100cf5760003560e01c80637b8e36ec1161008c5780639b322de8116100665780639b322de8146101ec578063d90cd37e1461020a578063e21f37ce14610226578063e79899bd14610244576100cf565b80637b8e36ec146101945780638da5cb5b146101b057806395d89b41146101ce576100cf565b806306fdde03146100d457806318160ddd146100f257806326c11eb71461011057806356b8c7241461012c5780636588930c1461014857806370a0823114610164575b600080fd5b6100dc610278565b6040516100e99190610d99565b60405180910390f35b6100fa610306565b6040516101079190610dd4565b60405180910390f35b61012a60048036038101906101259190610f38565b61030c565b005b6101466004803603810190610141919061100b565b6103e8565b005b610162600480360381019061015d9190610f38565b61052b565b005b61017e6004803603810190610179919061107a565b6105f5565b60405161018b9190610dd4565b60405180910390f35b6101ae60048036038101906101a99190610f38565b61060d565b005b6101b86106e9565b6040516101c591906110b6565b60405180910390f35b6101d661070f565b6040516101e39190610d99565b60405180910390f35b6101f461079d565b6040516102019190611278565b60405180910390f35b610224600480360381019061021f919061129a565b61098a565b005b61022e610b05565b60405161023b9190610d99565b60405180910390f35b61025e60048036038101906102599190611309565b610b93565b60405161026f959493929190611336565b60405180910390f35b60008054610285906113c6565b80601f01602080910402602001604051908101604052809291908181526020018280546102b1906113c6565b80156102fe5780601f106102d3576101008083540402835291602001916102fe565b820191906000526020600020905b8154815290600101906020018083116102e157829003601f168201915b505050505081565b60025481565b60006005805461031b906113c6565b80601f0160208091040260200160405190810160405280929190818152602001828054610347906113c6565b80156103945780601f1061036957610100808354040283529160200191610394565b820191906000526020600020905b81548152906001019060200180831161037757829003601f168201915b5050505050905081600590816103aa91906115a3565b507f5b4717af615de779c9c12885d202645882ad93995957a99a4a1a145b3ccdbc1081836040516103dc929190611675565b60405180910390a15050565b6000600580546103f7906113c6565b80601f0160208091040260200160405190810160405280929190818152602001828054610423906113c6565b80156104705780601f1061044557610100808354040283529160200191610470565b820191906000526020600020905b81548152906001019060200180831161045357829003601f168201915b50505050509050816005908161048691906115a3565b507f5b4717af615de779c9c12885d202645882ad93995957a99a4a1a145b3ccdbc1081836040516104b8929190611675565b60405180910390a18373ffffffffffffffffffffffffffffffffffffffff163373ffffffffffffffffffffffffffffffffffffffff167fddf252ad1be2c89b69c2b068fc378daa952ba7f163c4a11628f55a4df523b3ef8560405161051d9190610dd4565b60405180910390a350505050565b600360009054906101000a900473ffffffffffffffffffffffffffffffffffffffff1673ffffffffffffffffffffffffffffffffffffffff163373ffffffffffffffffffffffffffffffffffffffff16146105bb576040517f08c379a00000000000000000000000000000000000000000000000000000000081526004016105b29061171e565b60405180910390fd5b7f27727882bd190f5a2f84e21914b553731940ed0fe50f31444893a208319c2c20816040516105ea9190610d99565b60405180910390a150565b60046020528060005260406000206000915090505481565b60006005805461061c906113c6565b80601f0160208091040260200160405190810160405280929190818152602001828054610648906113c6565b80156106955780601f1061066a57610100808354040283529160200191610695565b820191906000526020600020905b81548152906001019060200180831161067857829003601f168201915b5050505050905081600590816106ab91906115a3565b507f5b4717af615de779c9c12885d202645882ad93995957a99a4a1a145b3ccdbc1081836040516106dd929190611675565b60405180910390a15050565b600360009054906101000a900473ffffffffffffffffffffffffffffffffffffffff1681565b6001805461071c906113c6565b80601f0160208091040260200160405190810160405280929190818152602001828054610748906113c6565b80156107955780601f1061076a57610100808354040283529160200191610795565b820191906000526020600020905b81548152906001019060200180831161077857829003601f168201915b505050505081565b60606006805480602002602001604051908101604052809291908181526020016000905b8282101561098157838290600052602060002090600502016040518060a00160405290816000820160009054906101000a900473ffffffffffffffffffffffffffffffffffffffff1673ffffffffffffffffffffffffffffffffffffffff1673ffffffffffffffffffffffffffffffffffffffff16815260200160018201805461084a906113c6565b80601f0160208091040260200160405190810160405280929190818152602001828054610876906113c6565b80156108c35780601f10610898576101008083540402835291602001916108c3565b820191906000526020600020905b8154815290600101906020018083116108a657829003601f168201915b505050505081526020016002820180546108dc906113c6565b80601f0160208091040260200160405190810160405280929190818152602001828054610908906113c6565b80156109555780601f1061092a57610100808354040283529160200191610955565b820191906000526020600020905b81548152906001019060200180831161093857829003601f168201915b5050505050815260200160038201548152602001600482015481525050815260200190600101906107c1565b50505050905090565b60066040518060a001604052808573ffffffffffffffffffffffffffffffffffffffff1681526020016040518060400160405280600681526020017f626f756768740000000000000000000000000000000000000000000000000000815250815260200184815260200183815260200142815250908060018154018082558091505060019003906000526020600020906005020160009091909190915060008201518160000160006101000a81548173ffffffffffffffffffffffffffffffffffffffff021916908373ffffffffffffffffffffffffffffffffffffffff1602179055506020820151816001019081610a8391906115a3565b506040820151816002019081610a9991906115a3565b50606082015181600301556080820151816004015550508273ffffffffffffffffffffffffffffffffffffffff167f343bd6f115aa567392f0fcf8d8115375de15420f6bdddacdf9b2b80bc9ef4c5b8383604051610af892919061173e565b60405180910390a2505050565b60058054610b12906113c6565b80601f0160208091040260200160405190810160405280929190818152602001828054610b3e906113c6565b8015610b8b5780601f10610b6057610100808354040283529160200191610b8b565b820191906000526020600020905b815481529060010190602001808311610b6e57829003601f168201915b505050505081565b60068181548110610ba357600080fd5b90600052602060002090600502016000915090508060000160009054906101000a900473ffffffffffffffffffffffffffffffffffffffff1690806001018054610bec906113c6565b80601f0160208091040260200160405190810160405280929190818152602001828054610c18906113c6565b8015610c655780601f10610c3a57610100808354040283529160200191610c65565b820191906000526020600020905b815481529060010190602001808311610c4857829003601f168201915b505050505090806002018054610c7a906113c6565b80601f0160208091040260200160405190810160405280929190818152602001828054610ca6906113c6565b8015610cf35780601f10610cc857610100808354040283529160200191610cf3565b820191906000526020600020905b815481529060010190602001808311610cd657829003601f168201915b5050505050908060030154908060040154905085565b600081519050919050565b600082825260208201905092915050565b60005b83811015610d43578082015181840152602081019050610d28565b60008484015250505050565b6000601f19601f8301169050919050565b6000610d6b82610d09565b610d758185610d14565b9350610d85818560208601610d25565b610d8e81610d4f565b840191505092915050565b60006020820190508181036000830152610db38184610d60565b905092915050565b6000819050919050565b610dce81610dbb565b82525050565b6000602082019050610de96000830184610dc5565b92915050565b6000604051905090565b600080fd5b600080fd5b600080fd5b600080fd5b7f4e487b7100000000000000000000000000000000000000000000000000000000600052604160045260246000fd5b610e4582610d4f565b810181811067ffffffffffffffff82111715610e6457610e63610e0d565b5b80604052505050565b6000610e77610def565b9050610e838282610e3c565b919050565b600067ffffffffffffffff821115610ea357610ea2610e0d565b5b610eac82610d4f565b9050602081019050919050565b82818337600083830152505050565b6000610edb610ed684610e88565b610e6d565b905082815260208101848484011115610ef757610ef6610e08565b5b610f02848285610eb9565b509392505050565b600082601f830112610f1f57610f1e610e03565b5b8135610f2f848260208601610ec8565b91505092915050565b600060208284031215610f4e57610f4d610df9565b5b600082013567ffffffffffffffff811115610f6c57610f6b610dfe565b5b610f7884828501610f0a565b91505092915050565b600073ffffffffffffffffffffffffffffffffffffffff82169050919050565b6000610fac82610f81565b9050919050565b610fbc81610fa1565b8114610fc757600080fd5b50565b600081359050610fd981610fb3565b92915050565b610fe881610dbb565b8114610ff357600080fd5b50565b60008135905061100581610fdf565b92915050565b60008060006060848603121561102457611023610df9565b5b600061103286828701610fca565b935050602061104386828701610ff6565b925050604084013567ffffffffffffffff81111561106457611063610dfe565b5b61107086828701610f0a565b9150509250925092565b6000602082840312156110905761108f610df9565b5b600061109e84828501610fca565b91505092915050565b6110b081610fa1565b82525050565b60006020820190506110cb60008301846110a7565b92915050565b600081519050919050565b600082825260208201905092915050565b6000819050602082019050919050565b61110681610fa1565b82525050565b600082825260208201905092915050565b600061112882610d09565b611132818561110c565b9350611142818560208601610d25565b61114b81610d4f565b840191505092915050565b61115f81610dbb565b82525050565b600060a08301600083015161117d60008601826110fd565b5060208301518482036020860152611195828261111d565b915050604083015184820360408601526111af828261111d565b91505060608301516111c46060860182611156565b5060808301516111d76080860182611156565b508091505092915050565b60006111ee8383611165565b905092915050565b6000602082019050919050565b600061120e826110d1565b61121881856110dc565b93508360208202850161122a856110ed565b8060005b85811015611266578484038952815161124785826111e2565b9450611252836111f6565b925060208a0199505060018101905061122e565b50829750879550505050505092915050565b600060208201905081810360008301526112928184611203565b905092915050565b6000806000606084860312156112b3576112b2610df9565b5b60006112c186828701610fca565b935050602084013567ffffffffffffffff8111156112e2576112e1610dfe565b5b6112ee86828701610f0a565b92505060406112ff86828701610ff6565b9150509250925092565b60006020828403121561131f5761131e610df9565b5b600061132d84828501610ff6565b91505092915050565b600060a08201905061134b60008301886110a7565b818103602083015261135d8187610d60565b905081810360408301526113718186610d60565b90506113806060830185610dc5565b61138d6080830184610dc5565b9695505050505050565b7f4e487b7100000000000000000000000000000000000000000000000000000000600052602260045260246000fd5b600060028204905060018216806113de57607f821691505b6020821081036113f1576113f0611397565b5b50919050565b60008190508160005260206000209050919050565b60006020601f8301049050919050565b600082821b905092915050565b6000600883026114597fffffffffffffffffffffffffffffffffffffffffffffffffffffffffffffffff8261141c565b611463868361141c565b95508019841693508086168417925050509392505050565b6000819050919050565b60006114a061149b61149684610dbb565b61147b565b610dbb565b9050919050565b6000819050919050565b6114ba83611485565b6114ce6114c6826114a7565b848454611429565b825550505050565b600090565b6114e36114d6565b6114ee8184846114b1565b505050565b5b81811015611512576115076000826114db565b6001810190506114f4565b5050565b601f82111561155757611528816113f7565b6115318461140c565b81016020851015611540578190505b61155461154c8561140c565b8301826114f3565b50505b505050565b600082821c905092915050565b600061157a6000198460080261155c565b1980831691505092915050565b60006115938383611569565b9150826002028217905092915050565b6115ac82610d09565b67ffffffffffffffff8111156115c5576115c4610e0d565b5b6115cf82546113c6565b6115da828285611516565b600060209050601f83116001811461160d57600084156115fb578287015190505b6116058582611587565b86555061166d565b601f19841661161b866113f7565b60005b828110156116435784890151825560018201915060208501945060208101905061161e565b86831015611660578489015161165c601f891682611569565b8355505b6001600288020188555050505b505050505050565b6000604082019050818103600083015261168f8185610d60565b905081810360208301526116a38184610d60565b90509392505050565b7f4f6e6c7920746865206f776e65722063616e206c6f672061646d696e206d657360008201527f7361676573000000000000000000000000000000000000000000000000000000602082015250565b6000611708602583610d14565b9150611713826116ac565b604082019050919050565b60006020820190508181036000830152611737816116fb565b9050919050565b600060408201905081810360008301526117588185610d60565b90506117676020830184610dc5565b939250505056fea2646970667358221220ba2a33b8cfbf6ee20b8b08d333c026f58a3de53d3fb1b44665bb360d7a12b58364736f6c634300081b0033",
  "linkReferences": {},
  "deployedLinkReferences": {}
}